:020000040800F2
:10000000D00C002045010008630E00085B0E0008BC
:100010005F0E000861090008B31A00080000000024
:10002000000000000000000000000000451600086D
:10003000810B000800000000090F000831170008BC
:100040005F0100085F0100085F0100085F01000810
:100050005F0100085F0100085F0100085F01000800
:100060005F0100085F0100085F0100085F010008F0
:100070005F0100085F0100085F0100085F010008E0
:100080005F0100085F0100085F0100085F010008D0
:100090005F0100085F0100085F010008FD0B000818
:1000A0005F0100085F0100085F0100085F010008B0
:1000B0005F0100085F0100085F0100085F010008A0
:1000C0005F0100085F0100085F0100085F01000890
:1000D0005F010008951700085F010008011800087B
:1000E000850B0008991200085F0100085F010008F5
:1000F0005F0100085F0100085F0100085F01000860
:100100005F0100085F0100085F0100085F0100084F
:100110005F0100085F0100085F0100085F0100083F
:100120005F0100085F0100085F0100085F0100082F
:10013000DFF80CD000F0F6FA004800473D22000836
:10014000D00C00200648804706480047FEE7FEE73F
:10015000FEE7FEE7FEE7FEE7FEE7FEE7FEE7FEE777
:100160003517000831010008D2B201E000F8012B78
:10017000491EFBD270470022F6E710B513460A4627
:1001800004461946FFF7F0FF204610BD2DE9FE4F4B
:10019000804681EA0300C00F0C46009021F0004128
:1001A00023F00045B8EB0200A94105D240462146A4
:1001B00090461C460B46024623F00040104347D0B1
:1001C000270DC7F30A00C3F30A510290401A0190A9
:1001D00040286BDAC3F3130040F4801B009892466A
:1001E00020B10023D2EB030A63EB0B0B01985946B5
:1001F000C0F14002504600F0D0F906460D46504688
:100200005946019A00F0E8F910EB0800614100241A
:1002100087EA115284EAE7731A4340D0009A62B326
:10022000019A012A4FEA075215DC001B61EB02011B
:100230004FF0004202EA0752CDE90042001C41F5AE
:10024000801132462B4600F01FFA03B0BDE8F08F54
:1002500040462146F9E7001B61EB0201001C41F515
:10026000801300185B412018A2F5001747EB03012B
:1002700040EAD570B6196D4111E06D084FEA3606B7
:1002800045EAC0754FEA0752001B61EB0201001CF2
:1002900041F5801149084FEA3000001951413246BA
:1002A0002B4603B0BDE8F04F00F0DFB90098012203
:1002B00040000023D0EB020263EBE073009821467C
:1002C0004FEAE074B8EB000061EB0401E9E783F06A
:1002D00000435BE781F0004158E72DE9FE4F81EADA
:1002E000030404F0004421F0004100944FF0000B9F
:1002F00023F0004350EA01045ED052EA03045BD0CD
:10030000C3F30A54C1F30A552C44A4F2F334019404
:10031000A0FB0254C1F3130141F48011C3F3130392
:1003200043F4801301FB024400FB034E840A970A46
:1003300044EA815447EA8357A4FB076802958D0A73
:1003400005FB07854FEA932C04FB0C542705029DFF
:100350004FEA065847EA1637B5EB08056EEB070C6F
:10036000870E920E47EA811742EA8312A7FB020129
:10037000B6EB0B0164EB00042B0D43EA0C335E1863
:1003800044EB1C50DA465146E7FB0201C5F3130467
:100390004FEA0B3343EA14534FEA0432019C43EA19
:1003A0000603A4F10C040294009CCDE900B400F013
:1003B0006BF903B0BDE8F08F00200146F9E72DE9A5
:1003C000F04D81EA030404F0004B21F0004514468F
:1003D0004FF0000A23F0004150EA050220D054EA11
:1003E00001021DD0C5F30A570246C5F31303C1F33A
:1003F0001300C1F30A5640F4801543F48013A7EBB1
:100400000608101BD64608F2FD3873EB050002D330
:1004100008F1010801E092185B41B8F1000F03DA1E
:1004200000200146BDE8F08D00204FF48011064603
:1004300084460EE0171B73EB050705D3121B63EB15
:10044000050306434CEA010C49084FEA30009218B4
:100450005B4150EA0107EDD152EA030012D082EA73
:10046000040083EA0501084305D0101BAB4106D206
:100470000122002306E000224FF0004302E06FF06B
:10048000010253101AEB06004CEB085110EB0A0066
:1004900041EB0B01BDE8F04D00F0E7B80EB540F2BE
:1004A000334102910021CDE900110A460B4600F0CC
:1004B000EBF803B000BD20F00040C10DC0F3160002
:1004C00040F400007F2901DA00207047962903DC00
:1004D000C1F19601C8407047963988407047C1F312
:1004E0000A5210B5C1F3130140F2FF3341F48011F9
:1004F0009A4201DA002010BD40F233439A42A2F240
:10050000334203DC524200F057F810BD904010BD5A
:1005100000F0004230F000400AD0C10D01F56071DA
:10052000C0F3160042EA0151C20840071143704768
:1005300000200146704701F0004330B421F0004133
:1005400050EA010206D00A0DA2F56072C1F3130150
:10055000002A02DC30BC00207047440F44EAC1048A
:10056000C100E01830BC00EBC25000F047B830B515
:100570000B46014600202022012409E021FA02F561
:100580009D4205D303FA02F5491B04FA02F52844FB
:10059000151EA2F10102F1DC30BD202A04DB203A55
:1005A00000FA02F1002070479140C2F1200320FAC6
:1005B00003F3194390407047202A04DB203A21FAC4
:1005C00002F00021704721FA02F3D040C2F120026C
:1005D0009140084319467047202A06DBCB17203A82
:1005E00041FA02F043EAE07306E041FA02F3D04038
:1005F000C2F1200291400843194670470029A8BF64
:100600007047401C490008BF20F00100704710B43B
:10061000B0FA80FC00FA0CF050EA010404BF10BCF0
:10062000704749B1CCF1200421FA04F411FA0CF11D
:1006300018BF012121430843A3EB0C01CB1D4FEA56
:1006400000614FEA102042BF002010BC704700EB51
:10065000C35010440029A4BF10BC7047401C49007F
:1006600008BF20F0010010BC704710B5141E73F1D4
:10067000000408DA401C41F1000192185B411A4362
:1006800001D120F0010010BD2DE9F04D92469B46AE
:1006900011B1B1FA81F202E0B0FA80F22032904654
:1006A000FFF77BFF04460F4640EA0A0041EA0B01D0
:1006B00053465A46084313D0114653EA010019D055
:1006C000C8F140025046FFF777FF05460E465046F8
:1006D00059464246FFF761FF084305D0012004E078
:1006E00020463946BDE8F08D0020054346EAE07615
:1006F0002C4337430A986305E40AA0EB0800002264
:10070000FD0A44EA47540A3002D500200146E9E7D1
:10071000010510196941DDE9084500196941BDE885
:10072000F04DA2E7064C074D06E0E06840F00103FB
:1007300094E8070098471034AC42F6D3FFF7FCFC6E
:10074000142600083426000821B1826842F0010214
:10075000826003E0826822F001028260704721B16A
:10076000826842F48072826003E0826822F48072C0
:100770008260704710B504461248844208D10121B6
:10078000401500F0FFFB0021601500F0FBFB17E0B7
:100790000D48844208D10121001500F0F3FB00212F
:1007A000201500F0EFFB0BE00848844208D101213E
:1007B000C80300F0E7FB00214FF4004000F0E2FB2B
:1007C00010BD00000024014000280140003C014011
:1007D000014600208A6802F004020AB1012000E00C
:1007E00000207047014600208A6802F008020AB122
:1007F000012000E00020704730B5024600200023B1
:1008000050680F4C20400D790C6844EA05242043C1
:10081000506090680B4C2040D1E902542C434D7934
:1008200044EA450420439060D06A20F470000C7CB8
:10083000641EE4B2234340EA0350D06230BD00009E
:10084000FFFEF0FFFDF7F1FFF0B504460D46002076
:100850000021092D11DDE068A5F10A0606EB460727
:10086000072606FA07F18843A5F10A0606EB4606B5
:1008700003FA06F10843E0600CE0206905EB450748
:10088000072606FA07F1884305EB450603FA06F149
:1008900008432061072A0FDA606B561E06EB8607B5
:1008A0001F2606FA07F18843561E06EB860605FA50
:1008B00006F10843606322E00D2A0FDA206BD61F91
:1008C00006EB86071F2606FA07F18843D61F06EBBC
:1008D000860605FA06F10843206310E0E06AA2F1FB
:1008E0000D0606EB86071F2606FA07F18843A2F1DC
:1008F0000D0606EB860605FA06F10843E062F0BD38
:10090000816841F008018160704721B1826842F43A
:10091000A002826003E0826822F4A0028260704735
:10092000816841F0040181607047000030B10749DF
:10093000096841F40001054A116005E003490968AE
:1009400021F40001014A11607047000008240140B1
:1009500010B5012000F026FB002000F023FB10BDA5
:1009600000BFFEE739B1084A1268012383401A43E9
:10097000054B1A6006E0044A1268012383409A433B
:10098000014B1A60704700000074004030B500222F
:1009900000230A4C226840F6FE748440A243D1E949
:1009A00000452C438D682C43CD6844EA050303FAC7
:1009B00000F42243014C226030BD0000007400406E
:1009C00008B500220092054A009200F10802009B3F
:1009D0001A440092009A116008BD000000740040A3
:1009E00021B1026842F00102026004E002684FF6A1
:1009F000FE731A400260704701684FF6FE721140A4
:100A000001600021016041608160C1604B49884202
:100A100008D14A490839496841F00F01474A083A64
:100A200051608AE045491431884208D14349083968
:100A3000496841F0F001414A083A51607DE03F4980
:100A40002831884208D13D490839496841F470612C
:100A50003A4A083A516070E038493C31884208D13E
:100A600036490839496841F47041344A083A5160BE
:100A700063E032495031884208D130490839496829
:100A800041F470212D4A083A516056E02B496431F7
:100A9000884208D129490839496841F47001274A38
:100AA000083A516049E025497831884208D1234904
:100AB0000839496841F07061204A083A51603CE0C9
:100AC0001F49884206D1011F096841F00F01021F2A
:100AD000116032E01A491431884208D11849091FBF
:100AE000096841F0F001164A121F116025E014490F
:100AF0002831884208D11249091F096841F4706100
:100B00000F4A121F116018E00D493C31884208D18C
:100B10000B49091F096841F47041094A121F11600D
:100B20000BE007495031884207D10549091F096880
:100B300041F47021024A121F116070470800024000
:100B40000804024010B50022026847F6F0739A4389
:100B50000C6A8B6823430C6923434C6923438C69DB
:100B60002343CC6923434C6A23438C6A23431A43AF
:100B70000260CB6843600B6883604B68C36010BD44
:100B80007047000010B54FF4004000F04DF850B32E
:100B90000A2001F019FC4FF40041154800F047F914
:100BA000E8B900BF00BF00BF00BF00BFBFF34F8F59
:100BB00000BF00BF00BF0F48006800F4E0600E49AE
:100BC0000843001D0B49086000BF00BF00BFBFF312
:100BD0004F8F00BF00BF00BF00BF00BFFDE74FF455
:100BE000004000F01BF84FF4004000F017F810BD73
:100BF000001801400CED00E00000FA0510B54FF4BC
:100C0000007000F011F818B14FF4007000F006F811
:100C10004FF4007000F002F810BD000001490860B8
:100C20007047000014040140014600200022074BD9
:100C30001B6803EA0102054B14331B680B4013B118
:100C40000AB1012000E000207047000000040140CC
:100C5000002123498279002A3AD00A4612680368A3
:100C60009A430B461A600A1D126803689A430B1DCB
:100C70001A60027911440A6803681A430A60184A24
:100C80000832126803689A43154B08331A601A1D1C
:100C9000126803689A43124B0C331A604279102A87
:100CA0000ED11A1F126803681A430D4B08331A60DD
:100CB0001A1D126803681A43094B0C331A600DE0C1
:100CC0000749427911440A6803681A430A6005E03B
:100CD000027911440A6803689A430A607047000069
:100CE000000401400549096821F01001034A116020
:100CF000114609680143116070470000002002405E
:100D000001460020034A106800F0380008431060D4
:100D100070470000002002402DE9F0410246002506
:100D20000026002000230024002791F803C00CF0C7
:100D30000F0591F803C00CF0100CBCF1000F03D0AC
:100D400091F802C04CEA050591F800C0BCF1000F13
:100D500031D0146800202BE04FF0010C0CFA00F3A6
:100D6000B1F800C00CEA03069E4220D183004FF088
:100D70000F0C0CFA03F7BC4305FA03FC4CEA04041D
:100D800091F803C0BCF1280F06D14FF0010C0CFA0A
:100D900000FCC2F814C00AE091F803C0BCF1480F8F
:100DA00005D14FF0010C0CFA00FCC2F810C0401C39
:100DB0000828D1D31460B1F800C0BCF1FF0F34DDB6
:100DC000546800202EE000F1080C4FF0010808FAEA
:100DD0000CF3B1F800C00CEA03069E4221D1830057
:100DE0004FF00F0C0CFA03F7BC4305FA03FC4CEA76
:100DF000040491F803C0BCF1280F05D100F1080CE0
:100E000008FA0CF8C2F8148091F803C0BCF1480F3E
:100E100007D100F1080C4FF0010808FA0CF8C2F8ED
:100E20001080401C0828CED35460BDE8F0810246F3
:100E3000002093680B400BB1012000E000207047B8
:100E400002460020D3680B400BB1012000E00020D7
:100E50007047416170470161704700BFFEE700BF06
:100E6000FEE7704770B5002100230F22C47804B359
:100E7000154C246804F4E064C4F5E064210AC1F16F
:100E80000403CA40447804FA03F1847814402143EF
:100E900009010E4C0678A155047804F01F050124C1
:100EA000AC4005786D11AD0005F1E025C5F80041B5
:100EB00009E0047804F01F050124AC40044D0678D5
:100EC000761145F8264070BD0CED00E000E400E02E
:100ED00080E100E002490143024A116070470000CE
:100EE0000000FA050CED00E0024A0A400243024B02
:100EF0001A60704780FFFF1F08ED00E0014908629B
:100F00007047000000000E427047000001460020BC
:100F1000034A506820F44040084350607047000086
:100F20000010024029B1064A52690243044B5A613B
:100F300004E0034A52698243014B5A617047000042
:100F40000010024029B1064AD2690243044BDA611B
:100F500004E0034AD2698243014BDA617047000022
:100F60000010024029B1064A92690243044B9A617B
:100F700004E0034A92698243014B9A617047000082
:100F80000010024029B1064AD2680243044BDA60DD
:100F900004E0034AD2688243014BDA6070470000E4
:100FA00000100240014908607047000040044242BE
:100FB0000149C86470470000000042420F480068C1
:100FC00040F001000D490860084640680C4908409F
:100FD0000A494860084600680A490840074908600D
:100FE0000846006820F4802008600846406820F425
:100FF000FE0048604FF41F008860704700100240F8
:101000000000FFF8FFFFF6FE30B5002100220024AB
:1010100000232D4D6D6805F00C0121B1042905D088
:10102000082923D105E0294D056022E0284D0560FF
:101030001FE0254D6D6805F47012234D6D6805F4B1
:101040008034022505EB92421CB9224D55430560C0
:101050000BE01D4D6D6805F400351DB11E4D554367
:10106000056002E01A4D5543056002E0174D05602A
:1010700000BF00BF144D6D6805F0F0010909174D60
:101080006B5C0568DD4045600F4D6D6805F4E061FF
:10109000090A124D6B5C4568DD4085600A4D6D683C
:1010A00005F46051C90A0D4D6B5C4568DD40C560B3
:1010B000054D6D6805F44041890B094D6B5CC568B1
:1010C000B5FBF3F5056130BD0010024000127A0057
:1010D000001BB70000093D00808D5B0078000020F8
:1010E0008800002010B501460022002300204A118C
:1010F000012A02D1094C236806E0022A02D1074CDA
:10110000236A01E0054C636A01F01F020124944048
:101110001C400CB1012000E0002010BD0010024076
:101120000248406800F00C007047000000100240C8
:1011300001460020034A506820F0F0000843506048
:1011400070470000001002401149096821F4803105
:101150000F4A11601146096821F480211160B0F531
:10116000803F03D0B0F5802F0ED106E00849096812
:1011700041F48031064A116007E00549096841F4ED
:10118000A021034A116000E000BF00BF70470000CB
:101190000010024000210B4A11700A4A203A82F8DE
:1011A0002010012802D0042808D103E00121054ABB
:1011B000117004E00521034A117000E000BF00BF78
:1011C000704700002010024001490860704700008D
:1011D0008004424201460020034A506820F4E06047
:1011E0000843506070470000001002400146002094
:1011F000034A506820F4605040EAC10050607047D4
:101200000010024001490866704700000000424299
:1012100002460020044B586820F47C1042EA010387
:101220001843014B586070470010024001490860A4
:10123000704700003C0442420249096A0143014AE6
:10124000116270470010024001460020034A5068B6
:1012500020F0030008435060704700000010024077
:1012600038B5002000900024002500BF3120FFF792
:1012700039FF05460098401C00900098B0F5A06F1B
:1012800001D0002DF2D03120FFF72CFF08B101244E
:1012900000E00024204638BD10B54FF40030FFF7C1
:1012A000C3FC18B14FF40030FFF7B8FC022000F087
:1012B00071F830B100F012F9022000F003F800F0EC
:1012C0000DF910BD024909888143014A1180704718
:1012D0000428004010B50288A2F2B27240F26D13E9
:1012E0005A430A600288D31702EB93739B10A3F54D
:1012F000F6730C6823440B604388154C34F81330A4
:101300000A681A440A6083880A681A440A600278E4
:1013100002F003022AB94288022A02D80A68521E41
:101320000A600C4B0A685A43C388C3EB4314C4EBEE
:10133000032302EB03120389C3EB031302EB8302C3
:10134000837A1A440A600A68521C0A6010BD0000C1
:10135000FA250008805101000348008840F0100081
:1013600001490880704700000428004003480088B5
:101370004FF6EF710840014908807047042800408B
:10138000002103480188001F008841EA004070479F
:101390001C28004001460020064A12880A40D0B2AC
:1013A000044A121F12880A4012B108B1012000E05D
:1013B000002070470428004029B1064A12880243E1
:1013C000044B1A8004E0034A12888243014B1A80BE
:1013D000704700000028004000B50246FFF7BCFF40
:1013E000100C03490880091D0A80FFF7BFFF00BDEC
:1013F0001828004000B50246FFF7AEFFC2F30340D5
:1014000003490880091D0A80FFF7B0FF00BD0000F6
:101410000828004038B5044604B938BD694620465E
:10142000FFF758FF0098FFF7D7FF00BFF5E73EB57D
:101430000446207830384FF47A7148436178303967
:1014400001EBC10202EB011100EB8101A078303801
:1014500000EB800001EB4001E0783038084480B2B6
:10146000ADF80000607930382179303901EB810125
:1014700000EB410080B2ADF80200E0793038A1798C
:10148000303901EB810100EB410080B2ADF804007E
:10149000607A3038217A303901EB810100EB41006C
:1014A00080B2ADF80600E07A3038A17A303901EB2D
:1014B000810100EB410080B2ADF80800607B30385C
:1014C000217B303901EB810100EB4100C0B28DF886
:1014D0000A006846FFF79EFF3EBD000000BF0348BC
:1014E000008800F020000028F9D070470428004050
:1014F000074800884FF6F77108400549088000BF8B
:101500000348008800F008000028F9D07047000068
:10151000042800403EB5002401214FF0C050FFF7E1
:1015200011FD0120FFF7EAFCFFF712FA0120FFF797
:1015300031FE03E0641C012000F046FF4120FFF76C
:10154000D1FD18B941F288308442F3D341F288309A
:10155000844223D100BF2EA000F0AEFA00BF0120CC
:10156000FFF732FE04E000BF2FA000F0A5FA00BF95
:101570006120FFF7B7FD0028F5D04FF40070FFF7AA
:101580005BFE0120FFF752FEFFF7B2FFFFF7A6FF59
:101590002B48FFF72FFFFFF7A1FF10E04FF48070FB
:1015A000FFF74AFE0120FFF741FEFFF7A1FFFFF71B
:1015B00095FF47F6FF70FFF71DFFFFF78FFF012133
:1015C0000220FFF7F9FEFFF789FF4FF40030FFF725
:1015D00025FB4FF40030009000208DF80400082017
:1015E0008DF8050001208DF806006846FFF730FBF6
:1015F00029208DF8080001208DF8090000208DF8C1
:101600000A0001208DF80B0002A8FFF72BFC3EBD5D
:101610005243435F464C41475F4C53455244592027
:101620006572726F720D0A005243435F464C414728
:101630005F4C5349524459206572726F720D0A0013
:10164000801A0600704710B500F002F810BD0000C7
:101650000CB50020019000903348006840F48030C1
:101660003149086000BF3048006800F40030009045
:101670000198401C0190009818B90198B0F5A06F2E
:10168000F1D12948006800F4003010B10120009029
:1016900001E0002000900098012843D12348006811
:1016A00040F01000214908600846006820F003005F
:1016B00008600846006840F0020008601A48406868
:1016C000194948600846406848600846406840F448
:1016D000806048600846406820F47C1048600846F6
:1016E000406840F4E81048600846006840F08070A8
:1016F000086000BF0C48006800F000700028F9D0B6
:101700000948406820F003000749486008464068DF
:1017100040F00200486000BF0348406800F00C0041
:101720000828F9D10CBD0000001002400020024042
:101730007047000010B51348006840F001001149DF
:10174000086008464068104908400E49486008464D
:1017500000680E4908400B4908600846006820F4FC
:10176000802008600846406820F4FE0048604FF47E
:101770001F008860FFF767FF4FF0006004490860B2
:1017800010BD0000001002400000FFF8FFFFF6FE51
:1017900008ED00E010B540F225510F4800F0C4F804
:1017A00038B10D4800F07CF9C4B221460BA000F01E
:1017B00083F90821084800F0AAF801280BD1082174
:1017C000054800F08FF8044800F06AF900BF04A053
:1017D00000F072F900BF10BD003801402563000021
:1017E0007573617274312055534152545F464C41B8
:1017F000475F4F5245206973207365740D0A0000DE
:1018000010B540F22551294800F08EF8002836D056
:10181000264800F045F9C4B20D2C04D124480088B4
:10182000401C2349088023482349098844542248FE
:101830000088401C80B220490880B0F5806F01D13B
:10184000002008801D480088401C80B21B49088089
:10185000B0F5806F13D10020174908801449088023
:10186000164908804FF480611248FEF784FC00BFDF
:101870001348007810B113A000F01EF900BF082132
:101880000A4800F044F801280ED10821074800F06A
:1018900029F8064800F004F900BF0948007810B1A3
:1018A00008A000F009F900BF10BD0000004800408A
:1018B00066000020CC0000206400002068000020AA
:1018C0007700002075617274332055534152545F84
:1018D000464C41475F4F5245206973207365740D34
:1018E0000A00000001F40072B2F5007F00D100BFD1
:1018F000CA430280704721B1828942F4005282813A
:1019000004E082894DF6FF731A40828170470246D7
:101910000020B1F5007F00D100BF13880B400BB150
:10192000012000E00020704770B50246002400232B
:101930000025002040F66A16B14200D100BFC1F375
:10194000421501F01F03012606FA03F3012D02D10F
:101950009689334006E0022D02D1168A334001E019
:10196000968A33400C12012606FA04F41688344095
:1019700013B10CB1012000E0002070BDF0B50346AA
:10198000002400260025002040F66A17B94200D145
:1019900000BF1846C1F3421401F01F06012707FAE1
:1019A00006F5012C01D10C3004E0022C01D11030DD
:1019B00000E014301AB107682F43076002E007689F
:1019C000AF430760F0BD00002DE9F04786B0054643
:1019D0000E460024A24600BFA1460027B08900B1F0
:1019E00000BF2F462C8A4CF6FF700440F088044359
:1019F0002C82AC894EF6F3100440B088318908433C
:101A0000718908430443AC81AC8A4FF6FF4004401F
:101A1000B0890443AC8201A8FFF7F6FA1F48874259
:101A200002D1DDF810A001E0DDF80CA0A88900F4D7
:101A3000004040B10AEBCA0000EB0A1031684900CF
:101A4000B0FBF1F807E00AEBCA0000EB0A103168BE
:101A50008900B0FBF1F86420B8FBF0F00401200924
:101A6000642101FB1089A88900F4004040B13220B4
:101A700000EBC900B0FBF1F000F00700044308E000
:101A8000322000EB09106421B0FBF1F000F00F00F0
:101A900004432C8106B0BDE8F08700000038014007
:101AA00001468888C0F308007047C1F308028280AD
:101AB000704700BFFEE700000FB4054B10B503A947
:101AC000044A029800F018F810BC5DF814FB0000FE
:101AD000152000088C00002002E008C8121F08C171
:101AE000002AFAD170477047002001E001C1121F9F
:101AF000002AFBD1704700002DE9FF4F8BB08846CC
:101B00000546002606E025280BD0DDE90D1290479A
:101B10006D1C761C28780028F5D10FB03046BDE842
:101B2000F08F0024A146A2460122AE4900E0044302
:101B300015F8013F203B02FA03F00842F7D128785C
:101B40002A2810D06FF02F022878A0F1300109293F
:101B500015D809EB890102EB410144F0020400EBC6
:101B600001096D1CF0E758F8041B5FEA010903D571
:101B700044F40054C9F1000944F002046D1C2878B3
:101B80002E2817D115F8010F44F004042A280ED08E
:101B90006FF02F022878A0F1300109290AD80AEB4A
:101BA0008A0102EB410100EB010A6D1CF2E758F8D3
:101BB00004AB6D1C28786C280FD006DC4C2817D09D
:101BC00068280DD06A2814D104E0742810D07A282F
:101BD0000FD10DE044F400140AE044F4801401E055
:101BE00044F440146978814202D104F580146D1CDC
:101BF0006D1C2878692865D006DC00288DD0632804
:101C000027D0642806D15DE06E2808D073282AD03A
:101C1000752877D0DDE90D129047761CE0E0C4F31B
:101C20000250022809D003280DD0D8F8001004284B
:101C30000DD00E6008F10408D2E0D8F80010F217B9
:101C4000C1E90062F6E7D8F800100E80F2E70E70E6
:101C5000F0E718F8041B8DF8001000208DF8010043
:101C6000EB46012003E058F804BB4FF0FF3061075A
:101C70004FF0000701D40AE07F1C57450DDA874278
:101C8000FADB1BF807100029F6D106E07F1C87421B
:101C9000FCDB1BF807100029F8D1DDE90D23A9EBC7
:101CA00007008146214600F0B1F83044C61904E02F
:101CB000DDE90D121BF8010B90477F1EF8D221467B
:101CC000484688E058F8040BC4F302514FF00A0B61
:101CD000032900D100B2042900D140B2002802DA61
:101CE00040422D2102E0210505D52B218DF824103D
:101CF000012104E006E0E10710D02021F6E708AF5B
:101D0000089113E058F8040BC4F302514FF00A0B8A
:101D1000032900D180B2042900D1C0B20021EEE72E
:101D20005946FEF724FC303107F8011D0028F7D191
:101D3000ADEB070000F1200B600702D524F48034DE
:101D400001E04FF0010ADA4502DDAAEB0B0000E0EA
:101D50000020824600EB0B0108980144A9EB01002A
:101D60000A90E00306D4DDE90D2321460A9800F02D
:101D70004DF806444FF0000908E009A911F80900E0
:101D8000DDE90D12904709F10109761C0899894592
:101D9000F3DBE0030CD5DDE90D2321460A9800F0C2
:101DA00035F8064404E0DDE90D1230209047761C3A
:101DB000BAF10001AAF1010AF5DC05E0DDE90D1236
:101DC00017F8010B9047761CBBF10001ABF1010B3A
:101DD000F4DC0A982146DDE90D2300F005F80644FD
:101DE0006D1C97E6092801002DE9F0410446002505
:101DF0001E461746880404D405E039462020B04723
:101E00006D1C641EF9D52846BDE8F0812DE9F0412E
:101E1000044600251E469046C80301D5302700E041
:101E20002027880404D505E041463846B0476D1C9C
:101E3000641EF9D52846BDE8F081000000B591B0D8
:101E40000320ADF8000000208DF8030069463E48ED
:101E5000FEF762FF4FF40040FFF758F801210846F3
:101E6000FFF760F801214FF40470FFF77BF8374863
:101E7000FEF780FC0120FEF759FD00200C900120A8
:101E80008DF834008DF835004FF460200E9000205E
:101E90000F9003208DF840000CA92C48FEF7ACFCF5
:101EA000032301220A212948FEF7CEFC0323022244
:101EB0000B212648FEF7C8FC0723032210212348E4
:101EC000FEF7C2FC01212148FEF749FC01211F4811
:101ED000FEF73AFC1D48FEF713FD00BF1B48FEF756
:101EE00081FC0028FAD11948FEF71AFD00BF1748F7
:101EF000FEF76EFC0028FAD101211448FEF705FD1B
:101F00001348FEF779FD11484C30019011480290BA
:101F1000002003901E200490002005908020069051
:101F200040000790800008902020099000020A904D
:101F300000200B9001A90648FEF704FE0121044889
:101F4000FEF74EFD11B000BD00100140002401401D
:101F5000080002409000002000B585B00121042057
:101F6000FFF700F801214807FEF7ECFF1020ADF85D
:101F7000100000208DF8130004A90B48FEF7CCFEDA
:101F800000200090019002900220039069460020FA
:101F9000FEF7FCFC01210020FEF7E4FC00210846CE
:101FA000FEF70EFD05B000BD000801402DE9F05F11
:101FB0008246D3465846FEF7ABFA804600220B4BCA
:101FC000FEF78BF906464FF06632094BFEF7F7F93C
:101FD0000446FEF7B0FA83465846FEF76CFA84B220
:101FE00021460020FEF7ECFCBDE8F09F0000B04069
:101FF00066660A40002107E042F6E06100BF0A1E63
:10200000A1F1010399B2FAD1021EA0F10100F3D1AE
:102010007047000070B504460D46E1B20548FFF771
:1020200044FD00BF80210348FFF771FC0028F9D070
:10203000204670BD003801402DE9FF5F8246002434
:10204000A1461CE0BAF1000F06D109EB4900204976
:1020500031F8100004440EE0BAF1010F07D109EB8A
:102060004900401C1A4931F81000044403E00020E4
:1020700004B0BDE8F09F09F1010000F0FF09B9F1DB
:102080000A0FDFDB0A20B4FBF0F4B4F57A6F01D954
:102090000020EDE72046FEF701FA074600220D4B2F
:1020A000FEF71BF9054600220B4BFEF788F90022CC
:1020B0000A4BCDE90001FEF710F9CDE90201FEF768
:1020C0003AFA83465846FEF7F6F980B2D0E70000A8
:1020D000900000200000F03F0000B04000A07440DD
:1020E0002DE9F04F87B00025002407E004EB440001
:1020F000801C234931F810000544641C0A2CF5D3D8
:102100000A20B5FBF0F52846FEF7C8F9074600227D
:102110001C4BFEF7E2F800221B4BCDE90201FEF753
:102120004EF94FF06632194BCDE90401FEF7D5F8B0
:102130008246FEF700FA81464846FEF7E9F9144A5E
:10214000144BCDE90001FEF7C5F882464FF033325B
:10215000114BFEF734F907460022104BFEF7BDF88D
:1021600000220F4BCDE90201FEF710F8CDE9040182
:10217000FEF7B5F9C6B2304607B0BDE8F08F0000F3
:10218000900000200000F03F0000B04066660A406A
:10219000E17A14AE47E1F63F3333114000408F40FF
:1021A00000405F4038B5044601214020FEF7DAFECA
:1021B00010208DF8030002208DF802000A4830F844
:1021C000240080B2ADF80000084951F824006946A7
:1021D000FEF7A2FD044A32F8242091B2034A52F8D5
:1021E0002400FEF738FE38BD000000200C0000205F
:1021F00010B504460F4A32F8242091B20E4A52F824
:102200002400FEF71DFE012809D10A4A32F82420D5
:1022100091B2094A52F82400FEF71BFE08E0054A75
:1022200032F8242091B2044A52F82400FEF713FE3B
:1022300010BD0000000000200C0000208AB000F05B
:102240008DF805A8FEF7E0FE0120FEF7B1FE00F0D4
:10225000C1F80120FFF7A6FF0220FFF7A3FF00202F
:10226000FFF7A0FF4FF4E131002000F0CDF8FFF7B9
:10227000E5FDFFF771FE4FF08040FFF797FE22A3C8
:102280000FCBCDE90323CDE90101FFF743F901A805
:10229000FFF7CDF800BF20A0FFF70EFC00BF4FF402
:1022A000E131012000F0B0F800F07AF900F042F9D5
:1022B00029E000F02BF90120FFF79AFF0220FFF739
:1022C00097FF0020FFF794FF642000F07DF800BF27
:1022D0000120FFF7B1FE04460020FFF7ADFE0546E2
:1022E000FFF7FEFE064623462A46314610A0FFF7BA
:1022F000E3FB00BF00BFFFF743F80446214614A0EC
:10230000FFF7DAFB00BFD4E73230313830343139EF
:10231000323235353030000073797374656D206961
:10232000732072756E696E672E2E2E2E0D0A0000B8
:102330005B4350553A25645D5B414443313A256423
:102340005D5B414443323A25645D0D0A00000000A4
:102350005B5254433A25645D0D0A000010B5FEF748
:102360002DFE4FF48030FEF7EFFEFEF779FF0446B6
:10237000012C26D11020FEF7B5FC0220FEF7C0FC90
:102380000020FEF7D5FE0020FEF730FFA002FEF78A
:1023900021FF4FF420114FF44030FEF739FF0120A8
:1023A000FEF730FF00BF3920FEF79CFE0028FAD070
:1023B0000220FEF749FF00BFFEF7B2FE0828FBD15E
:1023C00001E000BFFEE710BD10B504462046FFF750
:1023D00011FE10BD08B500214FF00060FEF784FD2E
:1023E0004FF4A060FEF776FD05208DF80000002078
:1023F0008DF801008DF8020001208DF80300684679
:10240000FEF730FD08BD000030B587B004460D462C
:1024100034B9384951F824000121FEF7A3FD05E045
:10242000344951F824000121FEF78CFD324951F85E
:1024300024000121FEF796FD6000304931F82000AC
:1024400080B2ADF8080004208DF80B002C4951F83B
:10245000240002A9FEF760FC012000EB440027499C
:1024600031F8200080B2ADF8080003208DF80A0092
:1024700018208DF80B00224951F8240002A9FEF71C
:102480004BFC2048005D8DF8040002208DF805000B
:1024900000208DF8060001208DF8070001A8FEF746
:1024A000E1FC194951F824000021FFF724FA0395B3
:1024B0000020ADF81000ADF81200ADF81400ADF832
:1024C00018000C20ADF816000F4951F8240003A99C
:1024D000FFF77AFA0C4951F82400012240F2255105
:1024E000FFF74CFA084951F824000121FFF703FADD
:1024F00007B030BD3C00002048000020180000203C
:1025000030000020600000205400002010B5402161
:102510000748FEF795FC012804D140210448FEF746
:1025200098FC03E040210248FEF795FC10BD000036
:102530000020014008B501210802FEF713FD4020EC
:10254000ADF8000010208DF8030003208DF8020084
:1025500069460448FEF7E0FB40210248FEF779FC9B
:1025600008BD00000020014008B501210802FEF767
:10257000F9FC10208DF8030002208DF802000120E4
:10258000ADF8000069460548FEF7C6FB0220ADF82D
:10259000000069460148FEF7BFFB08BD002001406E
:1025A00010B5FFF7E1FF4FF4E1310120FFF72CFFF9
:1025B00001210A48FEF74DFC02210848FEF749FCBC
:1025C0004FF47A70FFF700FF01210448FEF743FC47
:1025D00002210248FEF73FFC10BD00000020014030
:1025E000001F1C1F1E1F1E1F1F1E1F1E1F001F1D42
:1025F0001F1E1F1E1F1F1E1F1E1F000000001F008A
:102600003B005A0078009700B500D400F300110198
:1026100030014E0134260008000000209000000028
:10262000D81A0008C426000890000020400C0000C2
:10263000E81A00080002000000040000001000007A
:10264000001801400018014000180140000400007B
:102650000002000000080000000400000008000064
:102660000004000000080140000C0140001001407F
:10267000004000000000040000000800040000000A
:102680000800000010000000003801400048004031
:10269000004C00402527340000000000000000002E
:1026A0000000000000000000000001010000000028
:1026B00001020304010203040607080902040608D4
:0426C0000000000016
:0400000508000131BD
:00000001FF
