:020000040800F2
:100000007004002045010008930200088F020008D8
:10001000910200088D010008E506000800000000BC
:10002000000000000000000000000000F1040008D3
:100030008F0100080000000011030008F30400080D
:100040005F0100085F0100085F0100085F01000810
:100050005F0100085F0100085F0100085F01000800
:100060005F0100085F0100085F0100085F010008F0
:100070005F0100085F0100085F0100085F010008E0
:100080005F0100085F0100085F0100085F010008D0
:100090005F0100085F0100085F0100085F010008C0
:1000A0005F0100085F0100085F0100085F010008B0
:1000B0005F0100085F0100085F0100085F010008A0
:1000C0005F0100085F0100085F0100085F01000890
:1000D0005F0100085F0100085F0100085F01000880
:1000E0005F0100085F0100085F0100085F01000870
:1000F0005F0100085F0100085F0100085F01000860
:100100005F0100085F0100085F0100085F0100084F
:100110005F0100085F0100085F0100085F0100083F
:100120005F0100085F0100085F0100085F0100082F
:10013000DFF80CD000F018F8004800477D070008F1
:10014000700400200648804706480047FEE7FEE7A7
:10015000FEE7FEE7FEE7FEE7FEE7FEE7FEE7FEE777
:10016000F504000831010008064C074D06E0E06880
:1001700040F0010394E8070098471034AC42F6D3EE
:10018000FFF7DAFF94090008B4090008FEE770479A
:1001900008490A6822F010020A600A6810430860E1
:1001A000704700BF03490A6802F038021043086034
:1001B000704700BF002002402DE9F04791F803C0CE
:1001C0000CF00F0E1CF0100F1CBF8A784EEA020EC6
:1001D000098811F0FF0F24D0036800224FF00109B5
:1001E0004FF00F08E246002618E009FA06F50D4226
:1001F00012D008FA02F70EFA02F4BB4323435FFA67
:100200008AF4482C05D0282C04BF45614FF0280AF9
:1002100002E04FF0480A056104320136082EE4D1AD
:100220000360B1F5807F38BFBDE8F08743680022E6
:100230004FF001094FF00F0800261AE006F10805FB
:1002400009FA05F70F4212D008FA02F40EFA02F585
:10025000A3432B435FFA8CF5482D05D0282D04BF0E
:1002600047614FF0280C02E04FF0480C0761043260
:100270000136202AE2D14360BDE8F087C06808401B
:1002800018BF012070474161704701617047FEE768
:10029000FEE77047C2781449D2B110B5174A072358
:1002A000126890F801E0847890F800C023EA1222E6
:1002B0000F23D340C2F1040223400EFA02F21A4384
:1002C00001EB0C03120183F80023BDE8104000E0AD
:1002D00080310078012300F01F02C0F3421003FABE
:1002E00002F241F82020704700E100E00249084393
:1002F00002490860704700BF0000FA050CED00E0FD
:10030000024A11400843B6490860704780FFFF1F4A
:1003100070470000044A002911680CBF21EA000060
:1003200008431060704700BF181002400149086080
:10033000704700BF4C004242A648016841F00101ED
:1003400001604168A44A114041600168A34A11401C
:100350000160016821F480210160416821F4FE01FF
:1003600041604FF41F018160704700BF10B55549CF
:100370000A6802F00C031D4A1D4C082B03D0042B05
:1003800008BF224613E00A68C2F383420B680232B8
:1003900013F4803F02D1174B5A4308E00B6813F463
:1003A000003F1CBF48F68054C0F25B046243026009
:1003B000114C0B68C3F30313E35CDA4042600B6833
:1003C000C3F30223E35C22FA03F383600B68C3F3F5
:1003D000C223E35CDA40094BC2600968C1F3813192
:1003E000595CB2FBF1F1016110BD00BF00127A004F
:1003F000001BB70000093D008409000880090008BF
:1004000074490122B2EB501F04D04309022B14BFE0
:1004100024312031096800F01F0002FA00F0084082
:1004200018BF0120704700BF2648006800F00C008C
:10043000704700BF23490A6822F0F00210430860A9
:10044000704700BF6349B0F5802F0A6822F48032FC
:100450000A600A6822F480220A6006D0B0F5803F64
:1004600018BF70474FF4803001E04FF4A0200A68B5
:1004700010430860704700BF12490A6822F4E06226
:1004800010430860704700BF0E490A6822F46052AA
:1004900042EAC0000860704701490860704700BF29
:1004A00060004242084307490A6822F47C12104364
:1004B0000860704703490A6822F00302104308608D
:1004C000704700BF0410024081B0002000904148F6
:1004D00002680099013112F4003F0091009902D1A5
:1004E000B1F5A06FF3D10068C0F3404001B0704790
:1004F0007047704782B03748016841F001010160E0
:100500004168354A114041600168344A1140016038
:10051000016821F480210160416821F4FE014160FD
:100520004FF41F018160002101910091016841F4A5
:1005300080310160016801F40031009101990131BD
:100540000191009919B90199B1F5A06FF2D1016833
:1005500011F4003F0CBF00210121009100990129F5
:1005600032D14FF48051425842F01002425042586A
:1005700022F003024250425842F0020242504168C7
:10058000416041684160416841F480614160416877
:1005900021F47C114160416841F4E8114160016837
:1005A00041F080710160016811F0007FFBD041686B
:1005B00021F003014160416841F00201416041685E
:1005C00001F00C010829FAD105484FF000610160E3
:1005D00002B07047001002400000FFF8FFFFF6FE77
:1005E00008ED00E08289002922F4005318BF42F48C
:1005F0000053838170470088084018BF012070476E
:1006000080B501F0E00C4FF0020E142301F01F0141
:10061000BEEB5C1F4FF0010E08BF1023BEEB5C1F4A
:100620000EFA01F108BF0C23002AC2580CBF22EABF
:1006300001011143C15080BD70B586B004460D461E
:1006400001AE208AE98820F4405008434EF6F311A9
:100650002082A0890840A98808432989084369891C
:100660000843A081A08AA98920F440700843A08291
:100670003046FFF77BFE244906F1080002226FF0A6
:1006800063038C424FF0190108BF06F10C000426E9
:1006900000684843B4F90C100029B8BF012229684A
:1006A0009140B0FBF1F06421B0FBF1F202FB0300DA
:1006B000B4F90C30002BB8BF0326002B00FA06F06B
:1006C00000F13200B0FBF1F04FF00F01B8BF07218D
:1006D000084040EA0210208106B070BD6FF35F2130
:1006E00081807047FEE70000B0B5074D0446E1B2D7
:1006F0002846FFF7F3FF28468021FFF77CFF0028FC
:10070000F9D02046B0BD00BF003801407CB504469A
:1007100040200121FFF7FEFD174D41F2020001A923
:10072000ADF8060055F8240005EB8406ADF804008A
:10073000F068FFF741FD35F82410F068FFF7A5FDDC
:100740007CBD00BF70B50C4D044605EB840635F842
:100750002410F068FFF792FD014655F82420F06858
:10076000012904D191B2BDE87040FFF78CBD91B270
:10077000BDE87040FFF789BD10000020B0B586B01D
:1007800000F040F801A8FFF7F1FD0120FFF7CEFDD2
:1007900000F06CF80F4C0120A0470220A047002079
:1007A000A04700204FF4E13100F072F80AA000F0F9
:1007B000D5F80F4D0FA40120A8470220A84700201C
:1007C000A8474FF4FA7000F04FF8204600F0C6F842
:1007D000F1E700BF0D07000873797374656D206938
:1007E000732072756E696E672E2E2E2E0D0000001E
:1007F0004507000868656C6C6F2069426F782E2E83
:100800002E2E0D0080B5FFF797FD4FF48030FFF7D7
:1008100019FEFFF759FE012825D11020FFF7B8FC7B
:100820000220FFF7BFFC0020FFF704FE0020FFF7C7
:100830002BFE4FF48060FFF71FFE4FF440304FF463
:100840002011FFF72FFE0120FFF726FE3920FFF7CA
:10085000D7FD0028FAD00220FFF72CFEFFF7E4FDB9
:100860000828FBD180BDFEE770470000E0B54FF0DF
:1008700000600021FFF744FD4FF4A060FFF736FD54
:100880000248019001A8FFF705FD8CBD050000019D
:100890002DE9F04786B0274C05468846012104EB38
:1008A0008507F868FFF736FD042001214FF00409A1
:1008B000FFF730FD04F124060DF1040A56F8350067
:1008C0005146ADF8040054F825008DF80790FFF765
:1008D00073FC49EAC50051463058ADF8040041F6B2
:1008E0000200ADF8060054F82500FFF765FC124839
:1008F00000906846FFF7CEFCB86900210024FFF79E
:1009000071FECDE902844FF44020ADF8144002A9F5
:100910000490B869FFF790FEB86940F225510122B2
:10092000FFF76EFEB8690121FFF75CFE06B0BDE877
:10093000F08700BF300000202502000102E008C857
:10094000121F08C1002AFAD170477047002001E049
:1009500001C1121F002AFBD17047000010B50446E8
:1009600001E0FFF7C1FE14F8010B04490028F8D19B
:10097000BDE810400A20FFF7B7BE000000000020CD
:10098000020406080000000001020304010203043F
:1009900006070809C00900080000002070000000D8
:1009A0003C090008300A0008700000200004000024
:1009B0004C090008000000000000000000000000DA
:1009C0000000000000000000000000000000000027
:1009D00000020000000400000010000000180140A8
:1009E0000018014000180140000000000000000055
:1009F00000080140000C01400010014000400000D0
:100A000000000400000008000038014000480040D9
:100A1000004C00400004000000020000000800003C
:100A200000040000000800000004000000000000B6
:0400000508000131BD
:00000001FF
