:020000040800F2
:10000000B004002045010008CD0A0008C90A000814
:10001000CB0A0008A50800085D0F000800000000DA
:10002000000000000000000000000000710D00084A
:10003000D3090008000000004D0B0008730D0008F4
:100040005F0100085F0100085F0100085F01000810
:100050005F0100085F0100085F0100085F01000800
:100060005F0100085F0100085F0100085F010008F0
:100070005F0100085F0100085F0100085F010008E0
:100080005F0100085F0100085F0100085F010008D0
:100090005F0100085F0100085F0100085F010008C0
:1000A0005F0100085F0100085F0100085F010008B0
:1000B0005F0100085F0100085F0100085F010008A0
:1000C0005F0100085F0100085F0100085F01000890
:1000D0005F0100085F0100085F0100085F01000880
:1000E0005F0100085F0100085F0100085F01000870
:1000F0005F0100085F0100085F0100085F01000860
:100100005F0100085F0100085F0100085F0100084F
:100110005F0100085F0100085F0100085F0100083F
:100120005F0100085F0100085F0100085F0100082F
:10013000DFF80CD000F0E4FA00480047F1110008A5
:10014000B00400200648804706480047FEE7FEE767
:10015000FEE7FEE7FEE7FEE7FEE7FEE7FEE7FEE777
:10016000750D0008310100082DE9FE4F804681EA37
:100170000300C00F0C46009021F0004123F0004521
:10018000B8EB0200A94105D24046214690461C46E4
:100190000B46024623F00040104347D0270DC7F31B
:1001A0000A00C3F30A510290401A019040286BDA0A
:1001B000C3F3130040F4801B0098924620B1002343
:1001C000D2EB030A63EB0B0B01985946C0F14002D6
:1001D000504600F0D0F906460D4650465946019A61
:1001E00000F0E8F910EB08006141002487EA1152A1
:1001F00084EAE7731A4340D0009A62B3019A012A55
:100200004FEA075215DC001B61EB02014FF0004280
:1002100002EA0752CDE90042001C41F58011324646
:100220002B4600F01FFA03B0BDE8F08F4046214690
:10023000F9E7001B61EB0201001C41F58013001877
:100240005B412018A2F5001747EB030140EAD57087
:10025000B6196D4111E06D084FEA360645EAC075E2
:100260004FEA0752001B61EB0201001C41F58011AF
:1002700049084FEA30000019514132462B4603B07D
:10028000BDE8F04F00F0DFB90098012240000023E4
:10029000D0EB020263EBE073009821464FEAE07472
:1002A000B8EB000061EB0401E9E783F000435BE792
:1002B00081F0004158E72DE9FE4F81EA030404F084
:1002C000004421F0004100944FF0000B23F0004364
:1002D00050EA01045ED052EA03045BD0C3F30A542F
:1002E000C1F30A552C44A4F2F3340194A0FB025448
:1002F000C1F3130141F48011C3F3130343F48013DA
:1003000001FB024400FB034E840A970A44EA81542D
:1003100047EA8357A4FB076802958D0A05FB07850A
:100320004FEA932C04FB0C542705029D4FEA065814
:1003300047EA1637B5EB08056EEB070C870E920EF1
:1003400047EA811742EA8312A7FB0201B6EB0B01D1
:1003500064EB00042B0D43EA0C335E1844EB1C5095
:10036000DA465146E7FB0201C5F313044FEA0B33AB
:1003700043EA14534FEA0432019C43EA0603A4F112
:100380000C040294009CCDE900B400F06BF903B0BA
:10039000BDE8F08F00200146F9E72DE9F04D81EA34
:1003A000030404F0004B21F0004514464FF0000A0E
:1003B00023F0004150EA050220D054EA01021DD08A
:1003C000C5F30A570246C5F31303C1F31300C1F383
:1003D0000A5640F4801543F48013A7EB0608101B5F
:1003E000D64608F2FD3873EB050002D308F1010888
:1003F00001E092185B41B8F1000F03DA00200146DA
:10040000BDE8F08D00204FF48011064684460EE0D2
:10041000171B73EB050705D3121B63EB050306439C
:100420004CEA010C49084FEA300092185B4150EA4F
:100430000107EDD152EA030012D082EA040083EAF8
:100440000501084305D0101BAB4106D20122002351
:1004500006E000224FF0004302E06FF0010253106B
:100460001AEB06004CEB085110EB0A0041EB0B01B4
:10047000BDE8F04D00F0E7B80EB540F2334102910F
:100480000021CDE900110A460B4600F0EBF803B05D
:1004900000BD20F00040C10DC0F3160040F4000084
:1004A0007F2901DA00207047962903DCC1F196010B
:1004B000C8407047963988407047C1F30A5210B55A
:1004C000C1F3130140F2FF3341F480119A4201DA83
:1004D000002010BD40F233439A42A2F2334203DCC3
:1004E000524200F057F810BD904010BD00F000429D
:1004F00030F000400AD0C10D01F56071C0F3160064
:1005000042EA0151C20840071143704700200146EA
:10051000704701F0004330B421F0004150EA01027D
:1005200006D00A0DA2F56072C1F31301002A02DCA5
:1005300030BC00207047440F44EAC104C100E018F9
:1005400030BC00EBC25000F047B830B50B46014656
:1005500000202022012409E021FA02F59D4205D362
:1005600003FA02F5491B04FA02F52844151EA2F10C
:100570000102F1DC30BD202A04DB203A00FA02F14E
:10058000002070479140C2F1200320FA03F3194381
:1005900090407047202A04DB203A21FA02F0002123
:1005A000704721FA02F3D040C2F120029140084383
:1005B00019467047202A06DBCB17203A41FA02F091
:1005C00043EAE07306E041FA02F3D040C2F12002B0
:1005D00091400843194670470029A8BF7047401C46
:1005E000490008BF20F00100704710B4B0FA80FC49
:1005F00000FA0CF050EA010404BF10BC704749B186
:10060000CCF1200421FA04F411FA0CF118BF0121F5
:1006100021430843A3EB0C01CB1D4FEA00614FEAD5
:10062000102042BF002010BC704700EBC3501044A4
:100630000029A4BF10BC7047401C490008BF20F02F
:10064000010010BC704710B5141E73F1000408DAE5
:10065000401C41F1000192185B411A4301D120F086
:10066000010010BD2DE9F04D92469B4611B1B1FA43
:1006700081F202E0B0FA80F220329046FFF77BFF71
:1006800004460F4640EA0A0041EA0B0153465A4627
:10069000084313D0114653EA010019D0C8F14002B3
:1006A0005046FFF777FF05460E46504659464246EC
:1006B000FFF761FF084305D0012004E020463946DA
:1006C000BDE8F08D0020054346EAE0762C43374331
:1006D0000A986305E40AA0EB08000022FD0A44EA38
:1006E00047540A3002D500200146E9E701051019F8
:1006F0006941DDE9084500196941BDE8F04DA2E70F
:10070000064C074D06E0E06840F0010394E807005E
:1007100098471034AC42F6D3FFF70EFDA815000839
:10072000C81500088268002942F0010308BF22F0C2
:100730000103836070478268002942F4807308BF18
:1007400022F480738360704780B5134988420ED0CD
:100750001249884213D01249884218BF80BD4FF415
:100760000070012100F014FA4FF400700EE04FF415
:100770000040012100F00CFA4FF4004006E04FF475
:100780008060012100F004FA4FF480600021BDE890
:10079000804000F0FDB900BF003C0140002801404E
:1007A000002401408068C0F3800070478068C0F377
:1007B000C000704742680F4B1A400B681A430B7910
:1007C00042EA03220C4B4260826802EA030CD1E940
:1007D000023242EA0C021A434B7942EA4302826037
:1007E000C26A097C013922F47002C9B242EA01519D
:1007F000C1627047FFFEF0FFFDF7F1FFB0B501EBFE
:10080000410C092900F110044FF0070E88BFACF12C
:100810001E0C092988BF00F10C040EFA0CFE03FA25
:100820000CF3062A256825EA0E0543EA0503236032
:1008300003D834306FF0040307E00C2A87BF2C3054
:100840006FF0400330306FF0220302EB82021A4453
:100850001F23914003FA02F2036823EA02021143C4
:100860000160B0BD816841F0080181607047826815
:10087000002942F4A00308BF22F4A003836070475C
:10088000816841F00401816070470000044900283C
:100890000A6842F4000308BF22F400030B607047AB
:1008A00008240140FEE702684FF6FE7C002942F072
:1008B000010308BF02EA0C030360704701684FF6AA
:1008C000FE721140274A0160002101604160816091
:1008D000C160234990422FD0234A90421FD0234A1F
:1008E000904231D0224A904233D0224A904218D0CE
:1008F000214A904218D0214A904218D0204A904272
:1009000018D0204A904219D01F4A90421AD01F4A4C
:1009100090421CD01E4A904218BF704710E001F56B
:1009200080614FF4702016E04FF4700013E04FF038
:10093000706010E001F580610F200CE001F580612E
:10094000F02008E001F580614FF4706003E001F5EC
:1009500080614FF470400A6810430860704700BF20
:1009600004000240080002405804024030000240E7
:1009700044000240580002406C00024080000240E7
:10098000080402401C0402403004024044040240B7
:100990001C00024070B5026847F6F07301F12006B2
:1009A0009A438B68D1E904CE8C691A4368CE1A4306
:1009B000CB6942EA0C0242EA0E0222431A432A435E
:1009C00032430260CA6842600A6882604968C16056
:1009D00070BD704708490A6822F010020A600A6870
:1009E00010430860704700BF03490A6802F03802EC
:1009F00010430860704700BF002002402DE9F0431B
:100A000091F803E00EF00F0C1EF0100F1CBF8A7857
:100A10004CEA020C098811F0FF0F21D00368002274
:100A20004FF001094FF00F08002616E009FA06F70B
:100A30000F4210D008FA02F40CFA02F5BEF1480F8A
:100A400023EA040343EA050304D0BEF1280F08BFDC
:100A5000476100E0076104320136082EE6D10360E9
:100A6000B1F5807F38BFBDE8F083436800224FF0C6
:100A700001094FF00F08002618E006F1080709FAEF
:100A800007F70F4210D008FA02F40CFA02F5BEF193
:100A9000480F23EA040343EA050304D0BEF1280FFC
:100AA00008BF476100E0076104320136202AE4D123
:100AB0004360BDE8F083C068084018BF012070475C
:100AC0004161704701617047FEE7FEE77047000033
:100AD000C2781449D2B110B5174A0723126890F8AA
:100AE00001E0847890F800C023EA12220F23D3405B
:100AF000C2F1040223400EFA02F21A4301EB0C0386
:100B0000120183F80023BDE8104000E08031007836
:100B1000012300F01F02C0F3421003FA02F241F871
:100B20002020704700E100E00249084302490860C4
:100B3000704700BF0000FA050CED00E0024A1140CA
:100B40000843C7490860704780FFFF1F70470000D7
:100B50007C490A6822F4404210430860704700BF95
:100B6000044A002911680CBF21EA00000843106004
:100B7000704700BF14100240044A002911680CBFDE
:100B800021EA000008431060704700BF18100240BF
:100B9000044A002911680CBF21EA000008431060D4
:100BA000704700BF0C10024001490860704700BF49
:100BB0004C004242A748A84A016841F00101016087
:100BC00041681140A54A4160016811400160016817
:100BD00021F480210160416821F4FE0141604FF45D
:100BE0001F018160704700BF10B556490A6802F0C6
:100BF0000C02082A04D0042A0CBF1C4A1A4A14E02A
:100C00000A68C2F383420B68023213F4803F02D1B8
:100C1000184B5A4309E00B68154C13F4003F04BF0E
:100C200041F60034C0F2B70462430260124C0B6814
:100C3000C3F30313E35CDA4042600B68C3F302239F
:100C4000E35C22FA03F383600B68C3F3C223E35C23
:100C5000DA400A4BC2600968C1F38131595CB2FBCA
:100C6000F1F1016110BD00BF00127A00001BB70056
:100C7000808D5B0000093D00981500089415000860
:100C800001227449B2EB501F04D04309022B0CBF60
:100C90002031243100F01F00096802FA00F00840FA
:100CA00018BF0120704700BF2648006800F00C0004
:100CB000704700BF23490A6822F0F0021043086021
:100CC000704700BF6349B0F5802F0A6822F4803274
:100CD0000A600A6822F480220A6006D0B0F5803FDC
:100CE00018BF70474FF4803001E04FF4A0200A682D
:100CF00010430860704700BF12490A6822F4E0629E
:100D000010430860704700BF0E490A6822F4605221
:100D100042EAC0000860704701490860704700BFA0
:100D200060004242084307490A6822F47C121043DB
:100D30000860704703490A6822F003021043086004
:100D4000704700BF0410024081B00020009041486D
:100D500002680099013112F4003F0091009902D11C
:100D6000B1F5A06FF4D10068C0F3404001B0704706
:100D70007047704782B03748374A016841F0010137
:100D8000016041681140354A4160016811400160CD
:100D9000016821F480210160416821F4FE01416075
:100DA0004FF41F018160002101910091016841F41D
:100DB00080310160016801F4003100910199013135
:100DC0000191009919B90199B1F5A06FF2D10168AB
:100DD00011F4003F0CBF002101210091009901296D
:100DE00032D14FF48051425842F0100242504258E2
:100DF00022F003024250425842F00202425041683F
:100E0000416041684160416841F4806141604168EE
:100E100021F47C114160416841F4E81141600168AE
:100E200041F080710160016811F0007FFBD04168E2
:100E300021F003014160416841F0020141604168D5
:100E400001F00C010829FAD105484FF0006101605A
:100E500002B07047001002400000FFF8FFFFF6FEEE
:100E600008ED00E08289002942F4005308BF22F413
:100E70000053838170470088084018BF01207047E5
:100E800080B501F0E00C4FF0020E142301F01F01B9
:100E9000BEEB5C1F4FF0010E08BF1023BEEB5C1FC2
:100EA0000EFA01F108BF0C23002AC2580CBF22EA37
:100EB00001011143C15080BD70B586B004460D4696
:100EC00001AE208AE98820F4405008434EF6F31121
:100ED0002082A0890840A988084329890843698994
:100EE0000843A081A08AA98920F440700843A08209
:100EF0003046FFF779FE674906F1080002226FF0DD
:100F000063038C424FF0190108BF06F10C00042660
:100F100000684843A189A2EBD1312A6802FA01F1A5
:100F2000B0FBF1F06421B0FBF1F202FB0300A389F6
:100F3000A6EBD336B0403230B0FBF1F0072141EAE6
:100F4000133181F00801084040EA0210208106B008
:100F500070BD00BF6FF35F2181807047FEE7000026
:100F600070B592B03F4C0025032601A98DF80750BB
:100F7000ADF80460A4F5A050FFF740FD4FF4004029
:100F8000FFF7E6FD01200121FFF7EAFD4FF40470B1
:100F90000121FFF7F1FD2046FFF7D6FB0120FFF707
:100FA00075FC40F201100D950DA9ADF838004FF415
:100FB0006020CDE90F0520468DF84460FFF7FAFB6D
:100FC000294D20460A2101220323A84720460B2150
:100FD00002220323A8472046102103220723A84703
:100FE00020460121FFF7A7FB20460121FFF79AFBCE
:100FF0002046FFF737FC2046FFF7D8FB0028FAD140
:101000002046FFF73DFC2046FFF7CCFB0028FAD135
:1010100020460121FFF72BFC144C2046FFF74EFC25
:101020004F481E2103901248029000200490CDE901
:101030000510802107914FF4807108914FF4806171
:10104000099120210A914FF40051CDE90B1002A91A
:101050002046FFF79FFC20460121FFF724FC12B039
:1010600070BD00BF00240140FD07000808000240D9
:101070004C240140B0B5074D0446E1B22846FFF7C5
:1010800069FF28468021FFF7F6FE0028F9D02046A8
:10109000B0BD00BF0038014080B5DFF8C4C00021FA
:1010A00000234FF0000E07E003EB430201323CF84F
:1010B0001220033101339644092B05D80128F3D0BF
:1010C00000280A46F3D003E049F64940864501D995
:1010D000002080BD0A20BEFBF0F0FFF7CDF9064BE3
:1010E0000022FFF7E8F8054B0022FFF7E4F8FFF7CE
:1010F00010FAFFF7CEF980BD0000303F00A0744029
:10110000174A0020042102E0535A063118444029AE
:10111000FAD180B50A21B0FBF1F0FFF7ADF9114B20
:101120000022FFF7C8F8104B4FF06632FFF7C3F804
:10113000FFF7EFF9FFF7DAF90C4A0D4BFFF714F858
:101140000C4B4FF03332FFF728F90B4B0022FFF71F
:10115000B2F80A4B0022FFF707F8FFF7AEF980BD9F
:1011600070000020000030BF66660A40E17A14AECD
:1011700047E1F63F3333114000408F4000405F406D
:101180007CB5044640200121FFF7F6FC174D41F2E3
:10119000020001A9ADF8060055F8240005EB84060D
:1011A000ADF80400F068FFF729FC35F82410F0686A
:1011B000FFF788FC7CBD00BF70B50C4D044605EB05
:1011C000840635F82410F068FFF775FC014655F8E1
:1011D0002420F068012904D191B2BDE87040FFF7E6
:1011E0006FBC91B2BDE87040FFF76CBC10000020EE
:1011F000F0B585B000F056F86846FFF7F5FC012021
:10120000FFF7D2FC00F082F8164C0120A047022024
:10121000A0470020A04700204FF4E13100F088F8FB
:10122000FFF79EFE10A000F0A3F9154F15A40120B2
:10123000B8470220B8470020B8474FF4FA7000F0D2
:1012400063F8FFF75DFF05460020FFF725FF064620
:101250000120FFF721FF034620462946324600F0D1
:10126000BDF8E4E78111000873797374656D206936
:10127000732072756E696E672E2E2E2E0D00000083
:10128000B91100085B4350553A25645D5B41444306
:10129000313A25645D5B414443323A25645D0D0A71
:1012A0000000000080B5FFF785FC4FF48030FFF7A9
:1012B00009FDFFF749FD012825D11020FFF78AFB22
:1012C0000220FFF791FB0020FFF7F4FC0020FFF75E
:1012D0001BFD4FF48060FFF70FFD4FF440304FF4DB
:1012E0002011FFF71FFD0120FFF716FD3920FFF742
:1012F000C7FC0028FAD00220FFF71CFDFFF7D4FC42
:101300000828FBD180BDFEE770470000E0B54FF034
:1013100000600021FFF712FC4FF4A060FFF704FC0F
:101320000248019001A8FFF7D3FB8CBD0500000126
:101330002DE9F04786B0274C05468846012104EB8D
:101340008507F868FFF718FC042001214FF0040915
:10135000FFF712FC04F124060DF1040A8DF8079042
:1013600056F835005146ADF8040054F82500FFF753
:1013700045FB49EAC50051463058ADF8040041F636
:101380000200ADF8060054F82500FFF737FB1248BD
:1013900000906846FFF79CFBB86900210024FFF726
:1013A00061FDCDE902844FF44020ADF8144002A95C
:1013B0000490B869FFF780FDB86940F22551012219
:1013C000FFF75EFDB8690121FFF74CFD06B0BDE8EF
:1013D000F08700BF30000020250200010FB4054B4C
:1013E00010B503A9044A029800F018F810BC5DF883
:1013F00014FB0000751000080000002002E008C87F
:10140000121F08C1002AFAD170477047002001E07E
:1014100001C1121F002AFBD1704700002DE9FF4FC8
:1014200089B09B460446002506E025280BD05A4685
:101430000B999047641C6D1C20780028F5D10DB0E5
:101440002846BDE8F08F0027B8460122474900E052
:10145000074314F8013F203B02FA03F00842F7D19A
:1014600020782E2819D114F8010F47F004072A28F4
:101470000ED06FF02F022078A0F1300109290CD88E
:1014800008EB880102EB410100EB0108641CF2E764
:101490000A98641C50F8048B0A9020780028CED05B
:1014A000642808D0692806D075281ED05A460B99A2
:1014B00090476D1C58E00A994FF00A0901C90A913A
:1014C000002802DA40422D2102E0390504D52B2103
:1014D0008DF82010012103E0F90704D02021F7E75F
:1014E0008A4608AE0DE00021FAE70A994FF00A0992
:1014F00001C90A91F7E74946FFF727F8303106F8A6
:10150000011D0028F7D1ADEB060000F12009780796
:1015100001D44FF00108C84502DDA8EB090000E046
:1015200000208046002706E008A85A46C05D0B99B7
:1015300090476D1C7F1C5745F6DB04E030205A466F
:101540000B9990476D1CB8F10001A8F10108F5DC7A
:1015500005E016F8010B5A460B9990476D1CB9F13E
:101560000001A9F10109F4DC641C65E70928010008
:1015700010B5044601E0FFF77DFD14F8010B0449A6
:101580000028F8D1BDE810400A20FFF773BD000025
:10159000000000200204060800000000010203040D
:1015A0000102030406070809D01500080000002006
:1015B00070000000FC1300084016000870000020B6
:1015C000400400000C1400080000000000000000AF
:1015D000000000000000000000000000000000000B
:1015E000000200000004000000100000001801408C
:1015F0000018014000180140000000000000000039
:1016000000080140000C01400010014000400000B3
:1016100000000400000008000038014000480040BD
:10162000004C004000040000000200000008000020
:10163000000400000008000000040000000000009A
:0400000508000131BD
:00000001FF
