:020000040800F2
:10000000700400204501000801030008F9020008FF
:10001000FD0200088D010008F9080008000000003A
:100020000000000000000000000000004D06000875
:1000300091010008000000009D0300083907000836
:100040005F0100085F0100085F0100085F01000810
:100050005F0100085F0100085F0100085F01000800
:100060005F0100085F0100085F0100085F010008F0
:100070005F0100085F0100085F0100085F010008E0
:100080005F0100085F0100085F0100085F010008D0
:100090005F0100085F0100085F0100085F010008C0
:1000A0005F0100085F0100085F0100085F010008B0
:1000B0005F0100085F0100085F0100085F010008A0
:1000C0005F0100085F0100085F0100085F01000890
:1000D0005F0100085F0100085F0100085F01000880
:1000E0005F0100085F0100085F0100085F01000870
:1000F0005F0100085F0100085F0100085F01000860
:100100005F0100085F0100085F0100085F0100084F
:100110005F0100085F0100085F0100085F0100083F
:100120005F0100085F0100085F0100085F0100082F
:10013000DFF80CD000F018F800480047290A000842
:10014000700400200648804706480047FEE7FEE7A7
:10015000FEE7FEE7FEE7FEE7FEE7FEE7FEE7FEE777
:100160003D07000831010008064C074D06E0E06835
:1001700040F0010394E8070098471034AC42F6D3EE
:10018000FFF7DAFF440C0008640C000800BFFEE72C
:10019000704700000549096821F01001034A116009
:1001A00011460968014311607047000000200240B9
:1001B00001460020034A106800F038000843106030
:1001C00070470000002002402DE9F0410246002562
:1001D0000026002000230024002791F803C00CF023
:1001E0000F0591F803C00CF0100CBCF1000F03D008
:1001F00091F802C04CEA050591F800C0BCF1000F6F
:1002000031D0146800202BE04FF0010C0CFA00F301
:10021000B1F800C00CEA03069E4220D183004FF0E3
:100220000F0C0CFA03F7BC4305FA03FC4CEA040478
:1002300091F803C0BCF1280F06D14FF0010C0CFA65
:1002400000FCC2F814C00AE091F803C0BCF1480FEA
:1002500005D14FF0010C0CFA00FCC2F810C0401C94
:100260000828D1D31460B1F800C0BCF1FF0F34DD11
:10027000546800202EE000F1080C4FF0010808FA45
:100280000CF3B1F800C00CEA03069E4221D18300B2
:100290004FF00F0C0CFA03F7BC4305FA03FC4CEAD1
:1002A000040491F803C0BCF1280F05D100F1080C3B
:1002B00008FA0CF8C2F8148091F803C0BCF1480F9A
:1002C00007D100F1080C4FF0010808FA0CF8C2F849
:1002D0001080401C0828CED35460BDE8F08102464F
:1002E0000020D3680B400BB1012000E000207047D4
:1002F000416170470161704700BFFEE700BFFEE744
:100300007047000070B5002100230F22C47804B3A9
:10031000154C246804F4E064C4F5E064210AC1F1DA
:100320000403CA40447804FA03F18478144021435A
:1003300009010E4C0678A155047804F01F0501242C
:10034000AC4005786D11AD0005F1E025C5F8004120
:1003500009E0047804F01F050124AC40044D067840
:10036000761145F8264070BD0CED00E000E400E099
:1003700080E100E002490143024A11607047000039
:100380000000FA050CED00E0024A0A400243024B6D
:100390001A60704780FFFF1F08ED00E07047000003
:1003A00029B1064A92690243044B9A6104E0034A68
:1003B00092698243014B9A6170470000001002402D
:1003C0000149C86470470000000042420F480068BD
:1003D00040F001000D490860084640680C4908409B
:1003E0000A494860084600680A4908400749086009
:1003F0000846006820F4802008600846406820F421
:10040000FE0048604FF41F008860704700100240F3
:100410000000FFF8FFFFF6FE30B5002100220024A7
:1004200000232D4D6D6805F00C0121B1042905D084
:10043000082923D105E0294D056022E0284D0560FB
:100440001FE0254D6D6805F47012234D6D6805F4AD
:100450008034022505EB92421CB9224D55430560BC
:100460000BE01D4D6D6805F400351DB11E4D554363
:10047000056002E01A4D5543056002E0174D056026
:1004800000BF00BF144D6D6805F0F0010909174D5C
:100490006B5C0568DD4045600F4D6D6805F4E061FB
:1004A000090A124D6B5C4568DD4085600A4D6D6838
:1004B00005F46051C90A0D4D6B5C4568DD40C560AF
:1004C000054D6D6805F44041890B094D6B5CC568AD
:1004D000B5FBF3F5056130BD0010024000127A0053
:1004E000001BB70000093D00808D5B005400002018
:1004F0006400002010B501460022002300204A11AC
:10050000012A02D1094C236806E0022A02D1074CD5
:10051000236A01E0054C636A01F01F020124944044
:100520001C400CB1012000E0002010BD0010024072
:100530000248406800F00C007047000000100240C4
:1005400001460020034A506820F0F0000843506044
:1005500070470000001002401149096821F4803101
:100560000F4A11601146096821F480211160B0F52D
:10057000803F03D0B0F5802F0ED106E0084909680E
:1005800041F48031064A116007E00549096841F4E9
:10059000A021034A116000E000BF00BF70470000C7
:1005A0000010024001460020034A506820F4E06039
:1005B00008435060704700000010024001460020D0
:1005C000034A506820F4605040EAC1005060704710
:1005D00000100240014908667047000000004242D6
:1005E00002460020044B586820F47C1042EA0103C4
:1005F0001843014B5860704700100240014600202C
:10060000034A506820F00300084350607047000020
:100610000010024038B5002000900024002500BFE3
:100620003120FFF767FF05460098401C00900098B6
:10063000B0F5A06F01D0002DF2D03120FFF75AFFA6
:1006400008B1012400E00024204638BD704710B5F1
:1006500000F002F810BD00000CB5002001900090E1
:100660003348006840F480303149086000BF3048AA
:10067000006800F4003000900198401C0190009840
:1006800018B90198B0F5A06FF1D12948006800F4BD
:10069000003010B10120009001E00020009000988F
:1006A000012843D12348006840F010002149086028
:1006B0000846006820F0030008600846006840F023
:1006C000020008601A4840681949486008464068B6
:1006D00048600846406840F48060486008464068CA
:1006E00020F47C1048600846406840F4E8104860F8
:1006F0000846006840F08070086000BF0C48006841
:1007000000F000700028F9D00948406820F003008C
:10071000074948600846406840F00200486000BF52
:100720000348406800F00C000828F9D10CBD000017
:1007300000100240002002407047000010B513482E
:10074000006840F0010011490860084640681049FF
:1007500008400E494860084600680E4908400B49A9
:1007600008600846006820F4802008600846406859
:1007700020F4FE0048604FF41F008860FFF767FF19
:100780004FF000600449086010BD000000100240F6
:100790000000FFF8FFFFF6FE08ED00E021B18289BE
:1007A00042F40052828104E082894DF6FF731A40C0
:1007B0008281704702460020B1F5007F00D100BF62
:1007C00013880B400BB1012000E000207047F0B50A
:1007D0000346002400260025002040F66A17B9428F
:1007E00000D100BF1846C1F3421401F01F060127D3
:1007F00007FA06F5012C01D10C3004E0022C01D1DE
:10080000103000E014301AB107682F43076002E08F
:100810000768AF430760F0BD2DE9F04786B0054695
:100820000E460024A24600BFA1460027B08900B1B1
:1008300000BF2F462C8A4CF6FF700440F08804431A
:100840002C82AC894EF6F3100440B08831890843FD
:10085000718908430443AC81AC8A4FF6FF400440E1
:10086000B0890443AC8201A8FFF7D6FD1F48874238
:1008700002D1DDF810A001E0DDF80CA0A88900F499
:10088000004040B10AEBCA0000EB0A103168490091
:10089000B0FBF1F807E00AEBCA0000EB0A10316880
:1008A0008900B0FBF1F86420B8FBF0F004012009E6
:1008B000642101FB1089A88900F4004040B1322076
:1008C00000EBC900B0FBF1F000F00700044308E0C2
:1008D000322000EB09106421B0FBF1F000F00F00B2
:1008E00004432C8106B0BDE8F087000000380140C9
:1008F000C1F308028280704700BFFEE7014A024947
:1009000000F013B86D0900086800002002E008C874
:10091000121F08C1002AFAD170477047002001E079
:1009200001C1121F002AFBD170472DE9F041164684
:100930000F460446002503E03946B047641C6D1C91
:1009400020780028F8D12846BDE8F081002107E092
:1009500042F6E06100BF0A1EA1F1010399B2FAD18B
:10096000021EA0F10100F3D17047000070B50446EB
:100970000D46E1B20548FFF7BBFF00BF80210348E9
:10098000FFF718FF0028F9D0204670BD003801405D
:1009900038B5044601214020FFF702FD10208DF8F4
:1009A000030002208DF802000A4830F8240080B2CB
:1009B000ADF80000084951F824006946FFF704FC2F
:1009C000044A32F8242091B2034A52F82400FFF777
:1009D00091FC38BD000000200C00002010B504463A
:1009E0000F4A32F8242091B20E4A52F82400FFF741
:1009F00076FC012809D10A4A32F8242091B2094A2A
:100A000052F82400FFF774FC08E0054A32F824206D
:100A100091B2044A52F82400FFF76CFC10BD0000AC
:100A2000000000200C00002086B000F041F801A872
:100A3000FFF7F2FC0120FFF7C3FC00F075F801207E
:100A4000FFF7A6FF0220FFF7A3FF0020FFF7A0FF9C
:100A50004FF4E131002000F081F80AA0FFF74EFFCB
:100A60000FE00120FFF7BAFF0220FFF7B7FF0020D9
:100A7000FFF7B4FF4FF4FA7000F050F807A0FFF74B
:100A80003DFFEEE773797374656D206973207275AD
:100A90006E696E672E2E2E2E0D0A000068656C6C36
:100AA0006F2069426F782E2E2E2E0D0A0000000056
:100AB00010B5FFF78BFC4FF48030FFF74DFDFFF7CB
:100AC000A9FD0446012C26D11020FFF763FB02206C
:100AD000FFF76EFB0020FFF733FD0020FFF76EFDF0
:100AE000A002FFF75FFD4FF420114FF44030FFF7F5
:100AF00077FD0120FFF76EFD00BF3920FFF7FAFCFC
:100B00000028FAD00220FFF779FD00BFFFF710FDA3
:100B10000828FBD101E000BFFEE710BD10B5044678
:100B20002046FFF713FF10BD08B500214FF000600D
:100B3000FFF72AFC4FF4A060FFF71CFC05208DF89E
:100B4000000000208DF801008DF8020001208DF8D2
:100B500003006846FFF7D6FB08BD000030B587B03C
:100B600004460D46334951F824000121FFF718FCD3
:100B700001210420FFF714FC60002F4931F8200008
:100B800080B2ADF8080004208DF80B002B4951F815
:100B9000240002A9FFF718FB012000EB44002649BE
:100BA00031F8200080B2ADF8080002208DF80A006C
:100BB00018208DF80B00214951F8240002A9FFF7F5
:100BC00003FB25208DF8040002208DF8050000208D
:100BD0008DF8060001208DF8070001A8FFF792FBB1
:100BE000174951F824000021FFF7D8FD0395002094
:100BF000ADF81000ADF81200ADF81400ADF8180013
:100C00000C20ADF816000E4951F8240003A9FFF797
:100C100003FE0B4951F82400012240F22551FFF751
:100C2000D6FD074951F824000121FFF7B7FD07B0B1
:100C300030BD00003C0000201800002030000020E3
:100C400048000020640C0008000000206C00000038
:100C50000C090008D00C00086C00002004040000FF
:100C60001C09000800020000000400000010000041
:100C70000018014000180140001801400004000065
:100C8000000200000008000000040000000800004E
:100C90000004000000080140000C01400010014069
:100CA000004000000000040000000800003801407F
:100CB00000480040004C0040000000000102030416
:100CC00001020304060708090204060800000000E8
:0400000508000131BD
:00000001FF
