:020000040800F2
:1000000098040020450100086913000861130008E6
:1000100065130008350C0008592400080000000092
:10002000000000000000000000000000F51F0008B4
:10003000A50F0008000000009D14000829210008F9
:100040005F0100085F0100085F0100085F01000810
:100050005F0100085F0100085F0100085F01000800
:100060005F0100085F0100085F0100085F010008F0
:100070005F0100085F0100085F0100085F010008E0
:100080005F0100085F0100085F0100085F010008D0
:100090005F0100085F0100085F0100085F010008C0
:1000A0005F0100085F0100085F0100085F010008B0
:1000B0005F0100085F0100085F0100085F010008A0
:1000C0005F0100085F0100085F0100085F01000890
:1000D0005F0100085F0100085F0100085F01000880
:1000E0005F0100081D1B00085F0100085F01000898
:1000F0005F0100085F0100085F0100085F01000860
:100100005F0100085F0100085F0100085F0100084F
:100110005F0100085F0100085F0100085F0100083F
:100120005F0100085F0100085F0100085F0100082F
:10013000DFF80CD000F058FB00480047B929000850
:10014000980400200648804706480047FEE7FEE77F
:10015000FEE7FEE7FEE7FEE7FEE7FEE7FEE7FEE777
:100160002D2100083101000840EA01039B0703D05C
:1001700009E008C9121F08C0042AFAD203E011F8E6
:10018000013B00F8013B521EF9D270472DE9FE4FAA
:10019000804681EA0300C00F0C46009021F0004128
:1001A00023F00045B8EB0200A94105D240462146A4
:1001B00090461C460B46024623F00040104347D0B1
:1001C000270DC7F30A00C3F30A510290401A0190A9
:1001D00040286BDAC3F3130040F4801B009892466A
:1001E00020B10023D2EB030A63EB0B0B01985946B5
:1001F000C0F14002504600F001FA06460D46504656
:100200005946019A00F019FA10EB080061410024E8
:1002100087EA115284EAE7731A4340D0009A62B326
:10022000019A012A4FEA075215DC001B61EB02011B
:100230004FF0004202EA0752CDE90042001C41F5AE
:10024000801132462B4600F050FA03B0BDE8F08F23
:1002500040462146F9E7001B61EB0201001C41F515
:10026000801300185B412018A2F5001747EB03012B
:1002700040EAD570B6196D4111E06D084FEA3606B7
:1002800045EAC0754FEA0752001B61EB0201001CF2
:1002900041F5801149084FEA3000001951413246BA
:1002A0002B4603B0BDE8F04F00F010BA00980122D1
:1002B00040000023D0EB020263EBE073009821467C
:1002C0004FEAE074B8EB000061EB0401E9E783F06A
:1002D00000435BE781F0004158E72DE9FE4F81EADA
:1002E000030404F0004421F0004100944FF0000B9F
:1002F00023F0004350EA01045ED052EA03045BD0CD
:10030000C3F30A54C1F30A552C44A4F2F334019404
:10031000A0FB0254C1F3130141F48011C3F3130392
:1003200043F4801301FB024400FB034E840A970A46
:1003300044EA815447EA8357A4FB076802958D0A73
:1003400005FB07854FEA932C04FB0C542705029DFF
:100350004FEA065847EA1637B5EB08056EEB070C6F
:10036000870E920E47EA811742EA8312A7FB020129
:10037000B6EB0B0164EB00042B0D43EA0C335E1863
:1003800044EB1C50DA465146E7FB0201C5F3130467
:100390004FEA0B3343EA14534FEA0432019C43EA19
:1003A0000603A4F10C040294009CCDE900B400F013
:1003B0009CF903B0BDE8F08F00200146F9E72DE974
:1003C000F04D81EA030404F0004B21F0004514468F
:1003D0004FF0000A23F0004150EA050220D054EA11
:1003E00001021DD0C5F30A570246C5F31303C1F33A
:1003F0001300C1F30A5640F4801543F48013A7EBB1
:100400000608101BD64608F2FD3873EB050002D330
:1004100008F1010801E092185B41B8F1000F03DA1E
:1004200000200146BDE8F08D00204FF48011064603
:1004300084460EE0171B73EB050705D3121B63EB15
:10044000050306434CEA010C49084FEA30009218B4
:100450005B4150EA0107EDD152EA030012D082EA73
:10046000040083EA0501084305D0101BAB4106D206
:100470000122002306E000224FF0004302E06FF06B
:10048000010253101AEB06004CEB085110EB0A0066
:1004900041EB0B01BDE8F04D00F018B90EB540F28C
:1004A000334102910021CDE900110A460B4600F0CC
:1004B0001CF903B000BD20F00040C10DC0F31600D0
:1004C00040F400007F2901DA00207047962903DC00
:1004D000C1F19601C8407047963988407047C1F312
:1004E0000A5210B5C1F3130140F2FF3341F48011F9
:1004F0009A4201DA002010BD40F233439A42A2F240
:10050000334203DC524200F088F810BD904010BD29
:1005100000F0004230F000400AD0C10D01F56071DA
:10052000C0F3160042EA0151C20840071143704768
:1005300000200146704701F0004330B421F0004133
:1005400050EA010206D00A0DA2F56072C1F3130150
:10055000002A02DC30BC00207047440F44EAC1048A
:10056000C100E01830BC00EBC25000F078B830B5E4
:100570000B46014600202022012409E021FA02F561
:100580009D4205D303FA02F5491B04FA02F52844FB
:10059000151EA2F10102F1DC30BD2DE9F05F054628
:1005A000002092469B4688460646814640241BE032
:1005B000284641464746224600F02FF853465A4601
:1005C000C01A914110D311461846224600F016F881
:1005D0002D1A67EB01084F4622460120002100F04A
:1005E0000DF817EB00094E41201EA4F10104DFDCD9
:1005F000484631462A464346BDE8F09F202A04DBA0
:10060000203A00FA02F1002070479140C2F1200325
:1006100020FA03F3194390407047202A04DB203A64
:1006200021FA02F00021704721FA02F3D040C2F112
:1006300020029140084319467047202A06DBCB1759
:10064000203A41FA02F043EAE07306E041FA02F38D
:10065000D040C2F12002914008431946704700295A
:10066000A8BF7047401C490008BF20F00100704738
:1006700010B4B0FA80FC00FA0CF050EA010404BF98
:1006800010BC704749B1CCF1200421FA04F411FAEE
:100690000CF118BF012121430843A3EB0C01CB1D32
:1006A0004FEA00614FEA102042BF002010BC7047A3
:1006B00000EBC35010440029A4BF10BC7047401C7D
:1006C000490008BF20F0010010BC704710B5141E8F
:1006D00073F1000408DA401C41F1000192185B41FB
:1006E0001A4301D120F0010010BD2DE9F04D9246D2
:1006F0009B4611B1B1FA81F202E0B0FA80F22032E9
:100700009046FFF77BFF04460F4640EA0A0041EAA5
:100710000B0153465A46084313D0114653EA0100D1
:1007200019D0C8F140025046FFF777FF05460E4644
:10073000504659464246FFF761FF084305D0012065
:1007400004E020463946BDE8F08D0020054346EA26
:10075000E0762C4337430A986305E40AA0EB0800CF
:100760000022FD0A44EA47540A3002D5002001461F
:10077000E9E7010510196941DDE9084500196941FA
:10078000BDE8F04DA2E7C1F30A52C1F3130140F2F4
:10079000FF3341F480119A4202DA0020014670478B
:1007A00040F233439A42A2F2334202DC5242FFF754
:1007B00034BFFFF723BF000030B5041E71F1000401
:1007C00004DB4FF00044404264EB0101141E73F15E
:1007D000000405DB1C464FF00043524263EB040368
:1007E000994208BF904230BD064C074D06E0E068D4
:1007F00040F0010394E8070098471034AC42F6D368
:10080000FFF79AFC3C3600085C36000884B00A46C4
:10081000034603908DF80B109DF80B000028019201
:10082000009306D0FFE70398816841F001018160E1
:1008300005E00398816821F001018160FFE704B0C1
:100840007047000084B00A46034603908DF80B10F1
:100850009DF80B0000280192009306D0FFE7039853
:10086000816841F48071816005E00398816821F41A
:1008700080718160FFE704B07047000080B586B0EA
:1008800001460590059842F20042C4F201029042EE
:1008900004910BD1FFE74FF400700121039000F0A9
:1008A0007DFE0021039800F079FE27E0059842F6CE
:1008B0000001C4F2010188420BD1FFE74FF48060D0
:1008C0000121029000F06AFE0021029800F066FE0D
:1008D00013E0059843F60041C4F2010188420BD1B0
:1008E000FFE74FF400400121019000F057FE002186
:1008F000019800F053FEFFE7FFE7FFE706B080BD79
:1009000083B00146029000208DF8070002988068AD
:1009100010F0040F009104D0FFE701208DF80700CC
:1009200003E000208DF80700FFE79DF8070003B003
:100930007047000083B00146029000208DF8070048
:100940000298806810F0080F009104D0FFE70120A2
:100950008DF8070003E000208DF80700FFE79DF801
:10096000070003B07047000086B00A4603460590B2
:100970000491002003908DF80B00059840680390C7
:1009800003984FF6FF61CFF6F0710840039004988A
:100990000168007941EA0020039908430390039815
:1009A0000599486005988068039003984FF2FD719F
:1009B000CFF6F171084003900498C168D0F808C0E0
:1009C00041EA0C01407941EA400003990843039051
:1009D0000398059988600598C06A0390039820F4ED
:1009E000700003900498007C01389DF80B100843B8
:1009F0008DF80B009DF80B00039941EA005003901D
:100A000003980599C8620192009306B070470000F0
:100A1000B0B588B09C4696460C46054607908DF8C2
:100A20001B108DF81A208DF81930002005900490C5
:100A30009DF81B000A28CDF80CC0CDF808E0019401
:100A400000951DDBFFE70798C06805909DF81B0027
:100A500000EB40001E380721814004910499059A5B
:100A600022EA010105919DF8191001FA00F00490A5
:100A7000049805990843059005980799C8601BE0FC
:100A80000798006905909DF81B0000EB40000721C6
:100A9000814004910499059A22EA010105919DF88B
:100AA000191001FA00F00490049805990843059084
:100AB000059807990861FFE79DF81A0006281DDCD4
:100AC000FFE70798406B05909DF81A0000EB800047
:100AD00005381F21814004910499059A22EA0101F9
:100AE00005919DF81B1001FA00F0049004980599F7
:100AF000084305900598079948633FE09DF81A0060
:100B00000C281DDCFFE70798006B05909DF81A0084
:100B100000EB800023381F21814004910499059A3D
:100B200022EA010105919DF81B1001FA00F00490E2
:100B300004980599084305900598079908631CE0F7
:100B40000798C06A05909DF81A0000EB80004138B4
:100B50001F21814004910499059A22EA010105911F
:100B60009DF81B1001FA00F00490049805990843C1
:100B7000059005980799C862FFE7FFE708B0B0BD88
:100B800082B0014601900198826842F008028260BA
:100B9000009102B07047000084B00A4603460390FB
:100BA0008DF80B109DF80B0000280192009306D0E1
:100BB000FFE70398816841F4A001816005E0039894
:100BC000816821F4A0018160FFE704B07047000054
:100BD00082B0014601900198826842F0040282606E
:100BE000009102B07047000082B001468DF8070006
:100BF0009DF807000028009109D0FFE742F2084065
:100C0000C4F20100016841F40001016008E042F211
:100C10000840C4F20100016821F400010160FFE70F
:100C200002B0704780B5012000F0DAFC002000F02F
:100C3000D7FC80BDFFE7FEE784B00A460346039079
:100C40008DF80B109DF80B000028019200930CD03A
:100C5000FFE70398012101FA00F047F20041C4F2D6
:100C600000010A68104308600CE00398012101FAB2
:100C700000F047F20041C4F200010A6822EA0000D5
:100C80000860FFE704B07047B0B586B00A46034677
:100C90000590049100200390029047F20040C4F2B6
:100CA000000001680391059940F6FE7C0CFA01FCF6
:100CB000DDF80CE02EEA0C0CCDF80CC0DDF810C00D
:100CC000DCF800E0DCF80440DCF80850DCF80CC08C
:100CD0004EEA040E4EEA050E4CEA0E0CCDF808C0A2
:100CE000DDF808C00CFA01F1DDF80CC041EA0C0196
:100CF0000391039901600192009306B0B0BD00001A
:100D000085B00A4603460490ADF80E10002002900C
:100D100047F20040C4F2000002900498029908448F
:100D200008300290BDF80E0002990860019200930D
:100D300005B0704784B00A46034603908DF80B1047
:100D40009DF80B0000280192009306D0FFE703985E
:100D5000016841F00101016006E0039801684FF667
:100D6000FE7211400160FFE704B0704782B0014697
:100D70000190019802684FF6FE731A4002600198D4
:100D80000022026001984260019882600198C2606E
:100D900001980822C4F202029042009108D1FFE7B4
:100DA0000420C4F20200016841F00F010160B9E0C3
:100DB00001981C21C4F20201884208D1FFE70420F7
:100DC000C4F20200016841F0F0010160A9E001985D
:100DD0003021C4F20201884208D1FFE70420C4F2A6
:100DE0000200016841F47061016099E001984421BA
:100DF000C4F20201884208D1FFE70420C4F20200D5
:100E0000016841F47041016089E001985821C4F201
:100E10000201884208D1FFE70420C4F20200016801
:100E200041F47021016079E001986C21C4F2020163
:100E3000884208D1FFE70420C4F20200016841F4AF
:100E40007001016069E001988021C4F202018842CA
:100E500008D1FFE70420C4F20200016841F070618C
:100E6000016059E0019840F20841C4F20201884251
:100E700009D1FFE740F20440C4F20200016841F0EA
:100E80000F01016047E0019840F21C41C4F20201E9
:100E9000884209D1FFE740F20440C4F20200016831
:100EA00041F0F001016035E0019840F23041C4F2B8
:100EB0000201884209D1FFE740F20440C4F2020077
:100EC000016841F47061016023E0019840F24441FF
:100ED000C4F20201884209D1FFE740F20440C4F2A3
:100EE0000200016841F47041016011E0019840F294
:100EF0005841C4F20201884209D1FFE740F20440A0
:100F0000C4F20200016841F470210160FFE7FFE7CD
:100F1000FFE7FFE7FFE7FFE7FFE7FFE7FFE7FFE7A1
:100F2000FFE7FFE702B07047B0B585B00A46034659
:100F300004900391002002900498006802900298A7
:100F400047F6F071884302900398016AD0F808C010
:100F5000D0F810E04469856941EA0C0141EA0E01CC
:100F600021432943D0F81CC041EA0C01D0F824C029
:100F700041EA0C01806A08430299084302900298F2
:100F8000049908600398C068049948600398006851
:100F900004998860039840680499C860019200939E
:100FA00005B0B0BD7047000082B0014601900198C5
:100FB00040F21442C4F201021060009102B0704786
:100FC00084B00146039000208DF80B00019040F2A0
:100FD0000040C4F201000068039A1040019040F202
:100FE0001440C4F201000068039A1042009108D036
:100FF000FFE70198002804D0FFE701208DF80B00DF
:1010000003E000208DF80B00FFE79DF80B0004B013
:101010007047000083B0014602900020019040F22A
:101020000040C4F2010001900298807900280091EC
:101030005BD0FFE70298006840F20041C4F2010172
:101040000A6822EA000008600298006840F2044141
:10105000C4F201010A6822EA0000086002980179DE
:10106000019A11440191006801990A6810430860CF
:101070000298006840F20841C4F201010A6822EABD
:10108000000008600298006840F20C41C4F20101BF
:101090000A6822EA0000086002984079102813D1FB
:1010A000FFE70298006840F20841C4F201010A68B3
:1010B000104308600298006840F20C41C4F201013C
:1010C0000A68104308600FE040F20040C4F20100DB
:1010D000019002984179019A1144019100680199A7
:1010E0000A6810430860FFE70BE002980179019A53
:1010F00011440191006801990A6822EA0000086021
:10110000FFE703B07047000082B00146019042F251
:101110000000C4F20200026822F010020260019A8C
:1011200003681A430260009102B0704783B0014621
:1011300002900020019042F20000C4F20200026816
:101140000192019A02F038020192029A019B1A431D
:101150000192019A0260009103B070478AB00A467A
:10116000034609900891002007900690059004908E
:10117000039002900898C17801F00F010791C078A0
:10118000C00600280192009306D5FFE708988078F2
:10119000079908430790FFE70898007800284DD08A
:1011A000FFE709980068039000200590FFE7059885
:1011B00007283FD8FFE70598012101FA00F00490C5
:1011C00008980088049908400690069888422CD117
:1011D000FFE705988000049004980F218140029158
:1011E0000299039A22EA01010391079901FA00F09A
:1011F0000399084303900898C078282807D1FFE78F
:101200000598012101FA00F0099948610CE008985D
:10121000C078482807D1FFE70598012101FA00F0BE
:1012200009990861FFE7FFE7FFE7FFE7059801304D
:101230000590BCE7039809990860FFE708980088C3
:10124000B0F5807F4FDBFFE70998406803900020EE
:101250000590FFE70598072841D8FFE70598083073
:10126000012101FA00F004900898008804990840D0
:101270000690069888422DD1FFE7059880000490DB
:1012800004980F21814002910299039A22EA0101F8
:101290000391079901FA00F0039908430390089815
:1012A000C078282808D1FFE705980830012101FA05
:1012B00000F009994861FFE70898C078482808D1EC
:1012C000FFE705980830012101FA00F0099908614B
:1012D000FFE7FFE7FFE7059801300590BAE70398BD
:1012E00009994860FFE70AB07047000084B00A46D9
:1012F00003460390ADF80A1000208DF8090003980A
:10130000C068BDF80A1008420192009304D0FFE7BC
:1013100001208DF8090003E000208DF80900FFE7A7
:101320009DF8090004B0704784B00A460346039054
:10133000ADF80A10BDF80A000399486101920093C4
:1013400004B0704784B00A4603460390ADF80A1013
:10135000BDF80A00039908610192009304B0704738
:10136000FFE7FEE7FFE7FEE77047000085B00146B4
:1013700004900020039002900F2001900498C07800
:10138000002800913DD0FFE74EF60C50CEF2000051
:10139000006800F4E060C0F5E060000A0390039884
:1013A000C0F104010291019921FA00F00190049822
:1013B0004178029A914003918078019908400399FD
:1013C0000843039003980001039003980499097857
:1013D0004EF20042CEF2000288540498007800F0E9
:1013E0001F01012202FA01F14EF20012CEF20002B8
:1013F00042EAD0004EF21C12CEF200021040016010
:1014000013E00498007800F01F01012202FA01F1B4
:101410004EF28012CEF2000242EAD0004EF29C124E
:10142000CEF2000210400160FFE705B070470000F7
:1014300082B00146019001980022C0F2FA52104396
:101440004EF60C52CEF200021060009102B07047CE
:1014500084B00A46034603900291039802994FF61E
:10146000807CC1F6FF7C01EA0C0108434EF608516E
:10147000CEF2000108600192009304B070470000B2
:1014800082B001468DF807009DF807002022C4F2C3
:101490000E221060009102B07047000070470000FB
:1014A00083B0014602900020019041F20400C4F292
:1014B000020002680192019A22F440420192029ACB
:1014C000019B1A430192019A0260009103B0704798
:1014D00084B00A46034603908DF80B109DF80B006C
:1014E00000280192009309D0FFE7039841F214010C
:1014F000C4F202010A681043086009E0039841F24F
:101500001401C4F202010A6822EA00000860FFE741
:1015100004B0704784B00A46034603908DF80B1060
:101520009DF80B0000280192009309D0FFE7039873
:1015300041F21C01C4F202010A681043086009E08C
:10154000039841F21C01C4F202010A6822EA000079
:101550000860FFE704B0704784B00A460346039072
:101560008DF80B109DF80B0000280192009309D014
:10157000FFE7039841F21801C4F202010A68104320
:10158000086009E0039841F21801C4F202010A68F8
:1015900022EA00000860FFE704B0704784B00A4602
:1015A000034603908DF80B109DF80B000028019264
:1015B000009309D0FFE7039841F20C01C4F2020145
:1015C0000A681043086009E0039841F20C01C4F274
:1015D00002010A6822EA00000860FFE704B07047D1
:1015E00082B001468DF807009DF8070040F24042A6
:1015F000C4F242221060009102B0704782B00146EE
:101600008DF807009DF807004C22C4F242221060BA
:10161000009102B07047000041F20000C4F20200E5
:10162000016841F00101016041F20401C4F20201CC
:101630000A680023CFF6FF031A400A6002684FF6DB
:10164000FF73CFF6F6631A400260026822F480222C
:101650000260086820F4FE00086041F20800C4F24D
:1016600002004FF41F0101607047000087B001467F
:1016700006900020059004900390029041F204002F
:10168000C4F20200006800F00C00059005980028E4
:101690000191009008D0FFE7009804280BD0FFE7E5
:1016A000009808280ED048E0069841F20021C0F2C8
:1016B0007A01016048E0069841F60031C0F2B701B6
:1016C000016041E041F20400C4F20200016801F44B
:1016D00070110491006800F4803003900498022196
:1016E00001EB904004900398002809D1FFE704988B
:1016F00040F60011C0F23D014843069908601BE026
:1017000041F20400C4F20200006810F4003F09D066
:10171000FFE7049848F68051C0F25B014843069900
:10172000086008E0049841F60031C0F2B701484370
:1017300006990860FFE7FFE706E0069841F20021FE
:10174000C0F27A010160FFE741F20400C4F2020036
:10175000016801F0F00105910599090905910599C4
:1017600043F29252C0F60002515C029106990B6856
:10177000DDF808C023FA0CF34B60016801F4E06166
:1017800005910599090A05910599515C02910699FF
:101790004B68DDF808C023FA0CF38B60016801F494
:1017A000605105910599C90A05910599515C02910D
:1017B00006994A68029BDA40CA60006800F440401B
:1017C00005900598800B0590059843F28E51C0F660
:1017D0000001085C02900698C168029AB1FBF2F120
:1017E000016107B07047000085B001468DF8130015
:1017F0000020039002908DF807009DF81300400927
:10180000039003980128009107D1FFE741F20000FF
:10181000C4F202000068029012E00398022807D187
:10182000FFE741F22000C4F202000068029006E0E7
:1018300041F22400C4F2020000680290FFE7FFE7D3
:101840009DF8130000F01F000390029803990122F5
:1018500002FA01F1084204D0FFE701208DF80700E9
:1018600003E000208DF80700FFE79DF8070005B0B2
:101870007047000041F20400C4F20200006800F06A
:101880000C00704783B0014602900020019041F2A5
:101890000400C4F2020002680192019A22F0F002F0
:1018A0000192029A019B1A430192019A02600091EF
:1018B00003B0704783B00146029041F20000C4F2C9
:1018C0000200026822F480320260026822F4802260
:1018D00002600298B0F5803F0191009005D0FFE7CB
:1018E0000098B0F5802F09D011E041F20000C4F259
:1018F0000200016841F48031016009E041F200001A
:10190000C4F20200016841F4A021016000E0FFE799
:1019100003B0704783B001468DF80B0041F2200000
:10192000C4F202000022027002709DF80B00024611
:1019300001280191009204D0FFE70098042807D005
:101940000DE041F22000C4F202000121017007E025
:1019500041F22000C4F202000521017000E0FFE71F
:1019600003B0704782B001468DF807009DF807006C
:1019700040F28042C4F242221060009102B07047EF
:1019800083B0014602900020019041F20400C4F2AD
:10199000020002680192019A22F4E0620192029A26
:1019A000019B1A430192019A0260009103B07047B3
:1019B00083B0014602900020019041F20400C4F27D
:1019C000020002680192019A22F460520192029A86
:1019D000019B43EAC2020192019A0260009103B0A6
:1019E0007047000082B001468DF807009DF807009F
:1019F0006022C4F242221060009102B070470000E1
:101A000085B00A460346049003910020029041F2FB
:101A10000400C4F2020001680291029921F47C11D1
:101A200002910499DDF80CC041EA0C01DDF808C010
:101A300041EA0C010291029901600192009305B004
:101A40007047000082B001468DF807009DF807003E
:101A500040F23C42C4F242221060009102B0704752
:101A600082B001460190019841F22002C4F20202C4
:101A7000136818431060009102B0704783B00146AC
:101A800002900020019041F20400C4F202000268BA
:101A90000192019A22F003020192029A019B1A43D9
:101AA0000192019A0260009103B0704780B584B042
:101AB000002003908DF80B008DF80A00FFE731201D
:101AC000FFF792FE8DF80A00039801300390FFE7BC
:101AD00003980021B0F5A06F019107D0FFE79DF8B2
:101AE0000A00B0FA80F040090190FFE70198C007B2
:101AF0000028E4D1FFE73120FFF776FE002804D06C
:101B0000FFE701208DF80B0003E000208DF80B00AB
:101B1000FFE79DF80B0004B080BD000080B54FF4D6
:101B20000030FFF74DFA002805D0FFE74FF40030F2
:101B3000FFF73AFAFFE7022000F0A4F8002808D0E7
:101B4000FFE700F091F9022000F004F800F08CF9B2
:101B5000FFE780BD82B00146ADF80600BDF8060083
:101B600042F60402C4F20002138823EA0000108047
:101B7000009102B07047000084B00A46034603900B
:101B800002910398008840F23671CFF6F57140F269
:101B90006D1C00FB0C1002990860039800880299E4
:101BA000D1F800C00CEB9000A0F5F6700860039827
:101BB000408843F2A251C0F6000131F810000299AA
:101BC000D1F800C060440860039880880299D1F879
:101BD00000C06044086003980088800700280192D4
:101BE00000930AD1FFE703984088022805D8FFE751
:101BF0000298016801390160FFE70298016840F22C
:101C0000A3225143039AD3884FF4616C03FB0CF376
:101C100003EBC1111389C3EB031301EB8301927A28
:101C200011440160029801680131016004B07047FD
:101C300042F60400C4F20000018841F01001018066
:101C40007047000042F60400C4F20000018821F051
:101C5000100101807047000081B00020ADF8020043
:101C600042F61C00C4F200000088ADF8020042F603
:101C70001800C4F200000088BDF8021041EA0040DC
:101C800001B0704782B00146ADF8060000208DF823
:101C9000050042F60400C4F200000088BDF80620EA
:101CA00010408DF8050042F60000C4F200000088E4
:101CB000BDF80620104000040028009109D0FFE77D
:101CC0009DF80500002804D0FFE701208DF80500ED
:101CD00003E000208DF80500FFE79DF8050002B045
:101CE0007047000083B00A460346ADF80A008DF83D
:101CF00009109DF809000028019200930AD0FFE71F
:101D0000BDF80A0042F60001C4F200010A8810433F
:101D100008800AE0BDF80A0042F60001C4F20001A2
:101D20000A8822EA00000880FFE703B0704700003D
:101D300080B582B0014601900091FFF779FFBDF8B0
:101D4000060042F61801C4F200010880019842F62C
:101D50001C01C4F200010880FFF774FF02B080BDCF
:101D600080B582B0014601900091FFF761FF0198B4
:101D7000C0F3034042F60801C4F200010880019854
:101D800042F60C01C4F200010880FFF75BFF02B0CD
:101D900080BD000080B584B0014603900398002800
:101DA000019101D1FFE707E0039802A9FFF7E4FEE4
:101DB0000298FFF7BDFFFFE704B080BD10B586B005
:101DC0000146059005980278437890F802C090F893
:101DD00003E0642463434FF47A7402FB04320CEB97
:101DE0008C0302EB430272444DF25003D21AADF859
:101DF00008200279437902EB820203EB4202A2F54A
:101E00000472ADF80A208279C37902EB820203EBF7
:101E10004202A2F50472ADF80C20027A407A02EB7D
:101E2000820200EB4200A0F50470ADF80E000598A8
:101E3000827AC07A02EB820200EB4200A0F50470C5
:101E4000ADF810000598027B407B02EB820200EBAC
:101E50004200A0F504708DF8120002A80191FFF76E
:101E600099FF06B010BD0000FFE742F60400C4F27F
:101E70000000008810F0200F01D1FFE7F5E7704760
:101E800042F60400C4F20000018821F0080101803C
:101E9000FFE742F60400C4F20000008810F0080FCB
:101EA00001D1FFE7F5E7704780B58CB000200890BE
:101EB0004FF0C05001210791FFF72CFB0798FFF767
:101EC000DFFAFEF7AFFE0798FFF724FDFFE741209A
:101ED000FFF78AFC4FF0000E0028CDF818E009D17A
:101EE000FFE7089841F288310022884238BF01227A
:101EF0000692FFE70698C007002807D0FFE708987A
:101F000001300890012000F00FFEE0E7089841F250
:101F1000883188422FD1FFE743F20A60C0F6000003
:101F200000F0BCFE4FF0010E05907046FFF71AFD61
:101F3000FFE76120FFF758FC002808D1FFE743F2D4
:101F40002260C0F6000000F0A9FE0490F1E74FF413
:101F50000070FFF785FD0120FFF774FDFFF790FF8C
:101F6000FFF782FF41F68020C0F20600FFF7F8FE7F
:101F7000FFF77AFF11E04FF48070FFF771FD012049
:101F8000FFF760FDFFF77CFFFFF76EFF47F6FF707E
:101F9000FFF7E6FEFFF768FFFFE70220012103914C
:101FA000FFF7A0FEFFF760FF4FF400300290FEF74E
:101FB000FBFF0298099000218DF828104FF0080EC1
:101FC0008DF829E0DDF80CE08DF82AE009A80191F0
:101FD000FFF720F829208DF82C0003988DF82D00AC
:101FE00001998DF82E108DF82F000BA8FFF7BEF980
:101FF0000CB080BD7047000080B500F001F880BDD6
:1020000083B000200290019041F20000C4F202006F
:10201000016841F480310160FFE741F20000C4F241
:102020000200006800F40030019002980130029034
:10203000FFE7019800210028009109D1FFE70298ED
:10204000A0F5A061B0F5A06F18BF01210091FFE7D6
:102050000098C0070028E0D1FFE741F20000C4F279
:102060000200006810F4003F03D0FFE70120019058
:1020700002E000200190FFE70198012850D1FFE71E
:1020800042F20000C4F20200016841F01001016058
:10209000016821F003010160016841F00201016063
:1020A00041F20400C4F202000168016001680160AD
:1020B000016841F480610160016821F47C110160D4
:1020C000016841F4E811016041F20000C4F202002D
:1020D000016841F080710160FFE741F20000C4F245
:1020E0000200006810F0007F01D1FFE7F5E741F240
:1020F0000400C4F20200016821F0030101600168DC
:1021000041F002010160FFE741F20400C4F2020065
:10211000006800F00C00082801D0FFE7F4E700E0B9
:10212000FFE703B0704700007047000080B541F240
:102130000000C4F20200016841F00101016041F2B7
:102140000401C4F202010A680023CFF6FF031A401B
:102150000A6002684FF6FF73CFF6F6631A4002601A
:10216000026822F480220260086820F4FE00086001
:1021700041F20800C4F202004FF41F010160FFF7B2
:102180003BFF4EF60850CEF200004FF000610160B8
:1021900080BD000084B00A46034603908DF80B1002
:1021A0009DF80B0000280192009306D0FFE70398EA
:1021B000818941F40051818105E00398818921F4EE
:1021C00000518181FFE704B07047000084B00A46E7
:1021D00003460390ADF80A1000208DF80900BDF801
:1021E0000A00B0F5007F0192009301D1FFE7FFE7FD
:1021F00003980088BDF80A1008400004002804D0A5
:10220000FFE701208DF8090003E000208DF80900A8
:10221000FFE79DF8090004B07047000080B589B061
:1022200013468C4686460890ADF81E108DF81D208A
:1022300000200690059004900390BDF81E0040F623
:102240006A1188420293CDF804C0CDF800E001D1B4
:10225000FFE7FFE7089803909DF81E0040090690ED
:10226000BDF81E0000F01F0005900598012101FA3D
:1022700000F004900698012804D1FFE703980C3081
:1022800003900CE00698022804D1FFE70398103071
:10229000039003E0039814300390FFE7FFE79DF8F5
:1022A0001D00002806D0FFE7049803990A68104330
:1022B000086006E0049803990A6822EA00000860B2
:1022C000FFE709B080BD000080B592B00A46034622
:1022D0001190109100200F900E900D900C900B908B
:1022E0001098808900280592049301D0FFE7FFE74A
:1022F00011980B90008A0F900F984CF6FF710840D0
:102300000F901098C0880F9908430F900F9811995B
:102310000882119880890F900F984EF6F3110840AB
:102320000F90109881880289114389B2408908432F
:102330000F9908430F900F98119988811198808AFE
:102340000F900F984FF6FF4108400F90109880892A
:102350000F9908430F900F981199888206A8FFF7EC
:1023600085F90B9843F60001C4F20101884203D1BC
:10237000FFE709980E9002E008980E90FFE7119889
:10238000808910F4004F0AD0FFE70E9819214843C6
:10239000109909684900B0FBF1F00D9009E00E9822
:1023A00019214843109909688900B0FBF1F00D909C
:1023B000FFE70D9848F21F51C5F2EB11A0FB011287
:1023C0004FF6F073C7F6FF7303EA52020F920F9AAB
:1023D0001209642302FB13000C901198808910F4F9
:1023E000004F039111D0FFE70C98322101EBC000A0
:1023F00048F21F51C5F2EB11A0FB0101C1F34211DC
:102400000F9A11430F91029010E00C98322101EBCA
:10241000001048F21F51C5F2EB11A0FB0101C1F3FE
:1024200043110F9A11430F910190FFE70F981199F3
:10243000088112B080BD000084B00A4603460390B4
:10244000ADF80A10BDF80A006FF35F200399888089
:102450000192009304B07047FFE7FEE780B598B0A3
:102460000320ADF81C0000218DF81F1041F200027E
:10247000C4F2010207AB0690104605911946FEF71B
:102480006DFE4FF40040FFF70BF801200490049913
:10249000FFF71EF84FF404700499FFF75DF842F25D
:1024A0000040C4F201000390FEF7E8F90498FEF73B
:1024B0009BFB0598139004998DF850108DF85110DE
:1024C0004FF4602215921690069A8DF85C2013A99D
:1024D0000398FEF749FA0A210398049A069BFEF72F
:1024E00097FA0B2102220398069BFEF791FA10211E
:1024F00007230398069AFEF78BFA03980499FEF7D0
:10250000A1F903980499FEF781F90398FEF738FBC7
:10251000FFE742F20040C4F20100FEF70BFA002888
:1025200001D0FFE7F5E742F20040C4F20100FEF7F8
:102530004FFBFFE742F20040C4F20100FEF7E0F972
:10254000002801D0FFE7F5E742F20040C4F20100A5
:1025500001210291FEF720FB0820C4F20200019045
:10256000FEF704FC42F24C40C4F20100089040F235
:102570005800C2F20000099000200A901E210B9121
:102580000C9080210D914FF480710E914FF4806179
:102590000F91202110914FF400511191129008A930
:1025A0000198FEF7C1FC01980299FEF7C3FB18B031
:1025B00080BD000080B588B0042001210291FEF7A3
:1025C000CBFF4FF000500299FEF7A4FF1020ADF8AA
:1025D0001C0000208DF81F0040F60001C4F201012C
:1025E0000DF11C0E019008467146FEF7B7FD0198EB
:1025F0000390049005900221069103A9FEF744FB85
:1026000001980299FEF718FB01980199FEF778FBF3
:1026100008B080BD80B586B001460590059804904D
:1026200004980391FDF774FF4FF0000E0023C4F2ED
:10263000B0037246CDF808E0FDF74FFE4FF066326A
:1026400046F26663C4F20A03FDF7B9FEFDF773FFB5
:1026500004900498FDF72FFF029901900846019914
:10266000FEF74EFB06B080BD83B00146029000200D
:10267000ADF806000091FFE70298411E0291002884
:102680000FD0FFE742F6E060ADF80600FFE7BDF8C7
:102690000600411EADF80610002801D0FFE7F6E75E
:1026A000EAE703B07047000080B584B00A460346ED
:1026B000039002919DF80C1043F60000C4F2010053
:1026C00001920093FFF7B8FEFFE743F60000C4F263
:1026D00001008021FFF77AFD002801D1FFE7F4E730
:1026E000039804B080BD000080B588B001468DF825
:1026F0001D00002006908DF817000391FFE79DF85C
:102700001700092833DCFFE79DF81D0000280ED1D3
:10271000FFE79DF8170000EB400040F25801C2F2BD
:10272000000131F8100006990844069018E09DF861
:102730001D0001280FD1FFE79DF8170000EB4000B6
:1027400040F25801C2F2000101EB400040880699B6
:102750000844069003E00020ADF81E0037E0FFE7D4
:10276000FFE79DF8170001308DF81700C7E70698BE
:102770004CF6CD41CCF6CC41A0FB0101C908069135
:102780000699B1F57A6F029004D9FFE70020ADF801
:102790001E001CE00698FDF781FE4FF0000E00239E
:1027A000C4F2B0037246CDF804E0FDF708FE4AF229
:1027B0000003C4F27403019AFDF78FFDFDF7BBFE21
:1027C00004900498FDF777FEADF81E00FFE7BDF812
:1027D0001E0008B080BD000080B588B000200690C3
:1027E0000790FFE70798092812D8FFE7079800EB42
:1027F000400040F25801C2F2000101EB4000808825
:10280000069908440690FFE7079801300790E9E72A
:1028100006984CF6CD41CCF6CC41A0FB0101C9088D
:102820000691069903900846FDF738FE4FF0000E1A
:102830000023C4F2B0037246CDF808E0FDF7BFFDF7
:102840004FF0663246F26663C4F20A03FDF745FDB7
:10285000FDF771FE04900498FDF75AFE47F6E12259
:10286000CAF614624EF24713C3F6F673019010468F
:1028700000911946019A009BFDF729FD4FF0333274
:1028800043F23333C4F21103FDF799FD44F2000320
:10289000C4F28F03029AFDF720FD44F20003C4F254
:1028A0005F03029AFDF772FCFDF719FE8DF8170021
:1028B0009DF8170008B080BD80B586B001468DF840
:1028C00017004020012203911146FEF745FE10201B
:1028D0008DF8130002208DF8120040F20400C2F2BD
:1028E00000009DF8171050F82120ADF8102040F29C
:1028F0001002C2F2000252F821100DF1100E0290E7
:10290000084671460192FEF729FC9DF817000199CF
:1029100051F82020DDF808E03EF820101046FEF7C0
:1029200011FD06B080BD000080B586B001468DF86F
:1029300017009DF8170040F21002C2F2000252F890
:10294000202040F20403C2F2000333F82000049078
:102950001046049A03911146FEF7C8FC012814D1D1
:10296000FFE79DF8170040F21001C2F2000151F894
:10297000201040F20402C2F2000232F8200002905D
:1029800008460299FEF7D0FC13E09DF8170040F2CC
:102990001001C2F2000151F8201040F20402C2F20C
:1029A000000232F82000019008460199FEF7CAFCA7
:1029B000FFE706B080BD000080B598B000201790FA
:1029C0000D9000F06FF812A8FEF750FE01200C9059
:1029D000FEF714FE00F0B2F80C98FFF76DFF02202E
:1029E000FFF76AFF0D98FFF767FF4FF4E1310D988D
:1029F00000F0C0F8FFF732FDFFF7DCFD43F2BC50FA
:102A0000C0F6000000F04AF94FF080410B900846F4
:102A1000FFF700FE43F2FB51C0F600010DF1390053
:102A20000F220A90FDF7A0FB0990FFF73DFA0A98E4
:102A3000FFF7C4F9FFE701200890FFF775FF0220B8
:102A4000FFF772FF00200790FFF76EFF4FF4FA7058
:102A500000F06AF8FFF7C0FEDDF81CE00690704653
:102A6000FFF742FEDDF820E005907046FFF73CFEE0
:102A700043F2D35EC0F6000E049070460699059AA4
:102A8000049B00F00BF90390FFF7E6F843F2F051D6
:102A9000C0F6000102900846029900F0FFF801908C
:102AA000C9E7000080B582B0FEF7B6FD4FF4803074
:102AB000FEF700FFFEF7FAFF8DF807009DF807000C
:102AC00001282DD1FFE71020FEF71EFB0220FEF7A4
:102AD0002DFB00200090FEF7D5FE0098FEF768FF62
:102AE0004FF48060FEF74CFF4FF440304FF420115C
:102AF000FEF786FF0120FEF775FFFFE73920FEF79E
:102B000073FE002801D1FFE7F8E70220FEF7B6FFC9
:102B1000FFE7FEF7AFFE082801D0FFE7F9E701E085
:102B2000FFE7FEE702B080BD80B582B001460190AC
:102B300001980091FFF798FD02B080BD80B582B08A
:102B40004FF0006000210091FEF782FC4FF4A0607E
:102B5000FEF76EFC05208DF8040000988DF8050046
:102B60008DF8060001218DF8071001A8FEF7FEFB85
:102B700002B080BD80B592B00A4603468DF847008A
:102B800010919DF8470040F24C01C2F2000151F84B
:102B900020000121099108920793FEF7DDFC042033
:102BA00006900999FEF7D8FC40F22800C2F2000016
:102BB0009DF8471050F83120ADF82C20069A8DF87A
:102BC0002F2040F24003C2F2000353F821100DF110
:102BD0002C0E059008467146CDF810E00393FEF7E1
:102BE000BDFA9DF84700059901EBC0025268ADF8A7
:102BF0002C2002228DF82E2018238DF82F30039BD5
:102C000053F8200004990292FEF7A8FA25208DF8C7
:102C1000280002988DF8290000218DF82A10099AC1
:102C20008DF82B200AA80191FEF7A0FB9DF8470024
:102C300040F21C01C2F2000151F82000019A0091FB
:102C40001146FFF7A7FA10980C900198ADF83400E0
:102C5000ADF83600ADF83800ADF83C000C21ADF809
:102C60003A109DF84710009A52F821000CA9FFF77E
:102C70002BFB9DF84700009951F8200040F22551A8
:102C8000099AFFF7CBFA9DF84700009951F8200008
:102C90000999FFF77FFA12B080BD00000FB4054B11
:102CA00010B503A9044A029800F0DAF810BC5DF8E8
:102CB00014FB0000A92600080000002002E008C85C
:102CC000121F08C1002AFAD170477047002001E0A6
:102CD00001C1121F002AFBD1704700002DE9FF5FE0
:102CE00082B00021DDE90430020DDDF840B003437D
:102CF00018D044F61050A2F2FF3242431514119836
:102D000001281FD0A5EB0B00401C5FEA000A4FF022
:102D100000064E4FDFF83891B046504615D5CAF13F
:102D2000000413E0119801244AA3012801D16FEA9D
:102D30000B010298119AC0E90031C0E9024206B0C5
:102D4000BDE8F09FCBF10000DFE704460021404AD8
:102D5000491842EB0450CDE9001012E0E00707D01B
:102D600032463B4640464946FDF7B7FA804689461B
:102D700032463B4610461946FDF7AFFA06460F4667
:102D80006410002CEAD1DDE90401DDE90023BAF189
:102D9000000F06DAFDF7A1FA42464B46FDF79DFA11
:102DA00005E0FDF70CFB42464B46FDF708FB0446E9
:102DB0000E460022284BFDF7FFFC03D84FF0FF30F2
:102DC000014607E00022254B20463146FDF7DEF99B
:102DD000FDF7D9FC102409E0002C0ADB0A220023AD
:102DE000FDF7DBFB039B30321A55641E50EA0102EB
:102DF000F2D1641C039AC4F111031444119A012AFC
:102E000003D0012208430DD10AE0084304D000207A
:102E10004FF0110B119072E7A3EB0B056D1E0DE047
:102E20005B4504DD4FF0000205F1010504E003DA23
:102E30004FF00002A5F10105002AECD0029811998B
:102E4000C0E90231C0E9004579E700000000144004
:102E50000000F03F300000000000F0430000E03FC1
:102E60002DE9FF4F95B09B468946064600250FE2A7
:102E7000252877D100242746F84A0121059400E04F
:102E8000044316F8013F203B01FA03F01042F7D14A
:102E900030782A2811D06FF02F033078A0F130025B
:102EA000092A16D8059A44F0020402EB820203EBC9
:102EB00042021044761C0590EFE759F8042B059266
:102EC000002A03DA504244F40054059044F002040E
:102ED000761C30782E2816D116F8010F44F0040421
:102EE0002A280DD06FF02F023078A0F13003092B83
:102EF00009D807EB870302EB4303C718761CF3E7F7
:102F000059F8047B761C30786C280FD006DC4C28EE
:102F100017D068280DD06A2814D104E0742810D086
:102F20007A280FD10DE044F400140AE044F4801430
:102F300001E044F440147278824202D104F5801416
:102F4000761C761C307866280BD013DC582877D096
:102F500009DC002875D04528F6D04628F4D047284B
:102F60001AD19DE118E0632835D0642879D065280E
:102F700012D195E1702873D008DC6728F1D0692858
:102F80006FD06E280DD06F2806D1B5E073282CD0F5
:102F9000752875D0782874D05A46179990476D1CBB
:102FA00075E1C4F30250022809D003280DD0D9F8E6
:102FB000001004280DD00D6009F1040967E1D9F86B
:102FC0000010EA17C1E90052F6E7D9F800100D80A9
:102FD000F2E70D70F0E719F8041B8DF800100020DF
:102FE0008DF80100EA46012003E059F804AB4FF0E8
:102FF000FF3061074FF0000102D40DE008F101013C
:103000008846B9420FDA8045F8DB1AF80810002923
:10301000F4D108E008F1010188468142FADB1AF890
:1030200008100029F6D105985B46A0EB0807214659
:103030003846179A00F094FA284400EB080507E098
:103040004DE029E10DE01AF8010B5A461799904717
:10305000B8F10108F7D25B4621463846179A13E1CA
:1030600042E00A220092C4F302524FF0000A022A00
:1030700008D059F804CB032A4FEAEC710AD00DE0CE
:1030800029E02AE009F1070121F00702F2E802C174
:10309000914609E00FFA8CFC4FEAEC71042A03D147
:1030A0004FFA8CFC4FEAEC71002907DA0A4600213E
:1030B000DCF1000C61EB02012D2202E0220504D5B7
:1030C0002B228DF80420012203E0E20701D0202208
:1030D000F7E7904659E00A2102E010220DE01021A6
:1030E0004FF0000A00910BE010224FF0000A44F06C
:1030F00004040827009203E008224FF0000A00921F
:10310000C4F30252022A05D059F804CB0021032A45
:1031100008D009E009F1070121F00702F2E802C135
:10312000914605E01FFA8CFC042A01D10CF0FF0C3B
:103130004FF00008220728D5702806D0009B83F0A6
:10314000100353EA0A0305D00EE040228DF8042054
:10315000012208E05CEA010206D030228DF804204A
:103160008DF8050002229046009B83F0080353EA85
:103170000A030AD15CEA010201D1620705D53022B7
:103180008DF804204FF001087F1E582804D034A089
:1031900003900EA802900DE036A0F9E75346604672
:1031A000009AFDF7FAF984460398825C0298401E63
:1031B000029002705CEA0100F0D1029806A9081A98
:1031C00000F1200A600702D524F4803400E00127D2
:1031D000574502DDA7EB0A0000E0002000EB0A01E2
:1031E000009005984144401A0590E00306D45B46E0
:1031F0002146179A059800F0B3F90544002706E028
:1032000001A85A46C05D179990476D1C7F1C474521
:10321000F6DBE0030CD55B462146179A059800F0D3
:103220009FF9054404E030205A46179990476D1CD9
:103230000099481E00900029F5DC08E002980299E8
:103240005A460078491C0291179990476D1CBAF1B3
:103250000001AAF1010AF1DC65E100000928010082
:1032600030313233343536373839616263646566FC
:1032700000000000303132333435363738394142BE
:10328000434445460000000000F058F90544761C10
:10329000307800287FF4ECAD19B02846BDE8F08FF7
:1032A000620700D4062709F1070222F0070CFCE8A8
:1032B0000223E14603F000485FEA080C02D00FF257
:1032C000702C0DE05FEA045C02D50FF2682C07E079
:1032D0005FEAC47C02D00FF2602C01E0AFF2700C08
:1032E0004FF0FF3823F00043CDF850C065280CD0D4
:1032F00006DC452809D046281DD047283DD13DE0B1
:10330000662818D067287ED138E00021112F01DB14
:10331000112000E0781CCDE9000106A90EA8FFF7F6
:10332000DDFCDDE90F010E9A03910021009207F107
:10333000010A04914DE04FF000400097CDE90110E3
:1033400006A90EA8FFF7CAFCDDE90F0203920E9B47
:1033500011990022DDF80CA00093049211B9791C98
:1033600000EB010AB7EB0A0004D4C0F1FF3007F10B
:10337000010A0490AAEB0700019044E0012F00DA53
:1033800001270021112F01DD112000E03846CDE991
:10339000000106A90EA8FFF7A1FCDDE90F010E9AB6
:1033A0000391002104910092BA4621070CD403999D
:1033B000514500DA8A46BAF1010F05DD009AAAF1FB
:1033C0000101515C302908D0B84202DA10F1040F33
:1033D00006DA0121CDE9011015E0AAF10101E9E7C2
:1033E000002805DC049901440491AAEB000102E0E5
:1033F000411C514500DD8A460499401A401C019049
:103400004FF000400290200704D40198504501DBA2
:10341000CDF8048000208DF84F0002980DF14F0781
:10342000B0F1004F25D02B200E9002984FF00208EB
:1034300000280CDA404202902D200E9007E00A216D
:103440000298FDF794F83031029007F8011DB8F1A9
:103450000001A8F10108F2DC02980028EFD1791EE2
:103460000E980870307800F0200040F0450007F812
:10347000020D12A8C01B00F107081498007800B1D3
:10348000012000EB0A01019801EBE071059841442D
:10349000401A401E0590E00306D45B462146179A69
:1034A000059800F05DF805441498007818B15A4664
:1034B000179990476D1CE00324D55B462146179A67
:1034C000059800F04DF805441CE00498002807DB3F
:1034D000DDE90301884203DD0098405C179901E0B3
:1034E000179930205A469047049805F10105401C71
:1034F00004900198401E019004D12E205A4617993D
:1035000090476D1CBAF10001AAF1010ADDDC05E06B
:1035100017F8010B5A46179990476D1CB8F1000136
:10352000A8F10108F4DC5B462146179A0598ABE642
:103530002D0000002B000000200000002DE9F041CC
:10354000044600251E461746880404D405E0394683
:103550002020B0476D1C641EF9D52846BDE8F081D7
:103560002DE9F041044600251E469046C80301D5CA
:10357000302700E02027880404D505E0414638467E
:10358000B0476D1C641EF9D52846BDE8F0810204E1
:1035900006080000000001020304010203040607FC
:1035A0000809000000001F003B005A007800970047
:1035B000B500D400F300110130014E01737973742A
:1035C000656D2069732072756E696E672E2E2E2EC2
:1035D0000D0A005B4350553A25645D5B414443311D
:1035E0003A25645D5B414443323A25645D0D0A002F
:1035F0005B5254433A25645D0D0A00323031383055
:10360000343139323235353030005243435F464C25
:1036100041475F4C5345524459206572726F720D99
:103620000A005243435F464C41475F4C5349524462
:1036300059206572726F720D0A0000006036000832
:103640000000002058000000BC2C0008B83600081C
:103650005800002040040000CC2C000800000000AE
:103660000000000000020000000400000010000044
:1036700000180140001801400018014000380140C6
:1036800000480040004C0040000400000002000020
:103690000008000000040000000800000004000012
:1036A00000080140000C01400010014000400000F3
:0836B000000004000000080006
:0400000508000131BD
:00000001FF
